:100000000C942A000C9447000C9447000C94470071
:100010000C9447000C9447000C9447000C94470044
:100020000C9447000C9447000C9447000C94470034
:100030000C9447000C9447000C9447000C94470024
:100040000C9447000C9447000C9447000C94470014
:100050000C94470011241FBECFE5D8E0DEBFCDBF12
:1000600011E0A0E6B0E0EAE2F5E102C005900D92F1
:10007000A83FB107D9F721E0A8EFB1E001C01D9278
:10008000AE3FB207E1F70E9457010C94930A0C941B
:100090000000FB019B01285F3F4F811544E094075E
:1000A00058F4E199FECF9FBB8EBBE09A4DB34193CC
:1000B0000196E217F30789F7FB011086089588B3CC
:1000C0008F7088BB96B39F7081E09F3009F480E009
:1000D000089585BB959A9698979A82E08A95F1F74C
:1000E00000C097988FEC97E00197F1F700C00000EF
:1000F0000895CF93DF93EC018991811103C0DF91C3
:10010000CF9108950E946900F7CF85BB9598969886
:10011000979A82E08A95F1F700C097988FE697E169
:100120000197F1F700C00000089581E00E9485006A
:1001300080E80C9485000E94950080E80E9485006C
:100140008CE690E00E94790080EC0E9485008DE7AB
:1001500090E00C9479000E94950080E80E94850050
:100160008EE890E00E94790080EC0E9485008EE984
:1001700090E00C9479000E94950080E80E94850030
:100180008CEA90E00E94790080EC0E9485008AEB66
:1001900090E00C9479008FEF81BB84BB8FE39CE9E6
:1001A0000197F1F700C0000088E30E9485008CE011
:1001B0000E94850086E00E94850081E00E94850003
:1001C00080E80C94850088B38F7088BB86B38F70ED
:1001D0008F30C9F78AE08A95F1F700C086B38F7037
:1001E0008F30C1F78AE08A95F1F700C086B38F702F
:1001F0008F3081F72FEE3FED4FEB9FE728BB86B3A3
:100200008F708F30E1F438BB86B38F708F30C9F4B4
:1002100048BB86B38F708F30B1F498BB86B38F70B4
:100220008F3061F323E030E08E3079F4F901EE0F86
:10023000FF1FE20FF31FE05AFF4F8081089520E077
:10024000F2CF21E0F0CF22E0EECF8D3049F4F9017A
:10025000EE0FFF1FE20FF31FE05AFF4F8181089559
:100260008B3049F4F901EE0FFF1FE20FF31FE05A44
:10027000FF4F828108952F5F3F4FD8CF8BB38D6F93
:100280008BBB2FEF83EC99E0215080409040E1F749
:1002900000C000008BB382708BBB2FEF81EE94E027
:1002A000215080409040E1F700C000000895CF93B6
:1002B000DF93CDB7DEB7AB970FB6F894DEBF0FBEB6
:1002C000CDBF87E689B910BC88E18AB986E080BDD8
:1002D000D69A0E94CB0080EF87BB8FEF88BB0E942D
:1002E000950080E80E9485008AEC90E00E947900E9
:1002F00080EC0E9485008BED90E00E9479000E94C6
:10030000E3000E94BB00AA24A394B12C8E010F5FCE
:100310001F4F6E0121E1C20ED11CAE01475D5F4F40
:100320005BA74AA70E94E300082E000C990BC09718
:100330002091FC013091FD012130310509F4A7C263
:1003400090F02230310509F47BC32530310551F797
:100350001092FD011092FC011092FB011092FA0123
:100360000E94BB00DFCF2091FA013091FB012130C8
:10037000310509F4C1C048F12230310599F68630C3
:10038000910509F440C28730910509F4AEC085306B
:10039000910541F69093FD018093FC018091F80155
:1003A0009091F901F12C892B09F017C20E94950058
:1003B00080E80E94850081E591E00E94790080EC50
:1003C0000E9485008DE591E0E9C08230910579F0C9
:1003D0008930910509F489C08130910509F0A2CFD7
:1003E0009093FD018093FC010E949B009BCF909312
:1003F000FD018093FC010E94950080E80E94850029
:100400008CEE90E00E94790080EC0E948500F12C37
:100410000E94E3002F2D30E08F36B1F541E250E02D
:100420004C0F5D1F240F351FD9011C92BFEFE3EC69
:10043000F9E0B150E040F040E1F700C0000019865B
:10044000F12C8F2D90E02091F8013091F901821765
:10045000930734F10E94950080E80E9485008CEF9C
:1004600090E00E94790080EC0E94850084E091E099
:100470000E9479003FEF43ED50E33150404050403F
:10048000E1F700C0000064CFF394A1E2B0E0AC0F4C
:10049000BD1F2A0F3B1FF90180830E946900B8CF5E
:1004A000B801E3E0880F991FEA95E1F70E9449003F
:1004B000FE01B196D80191918D919813C6C22AA5DB
:1004C0003BA5E217F307B9F70E94950080E80E9468
:1004D000850085EC91E00E9479005FEF89E698E164
:1004E000515080409040E1F7CCCFB092FB01A092F8
:1004F000FA010E94AB0016CF8430910509F4D2C0F6
:1005000094F58330910509F00DCF9093FD01809310
:10051000FC010E9495008091F9018F938091F80170
:100520008F938FE091E09F938F93DF92CF920E9401
:10053000BB0780E80E948500C6010E9479000F90E9
:100540000F900F900F900F900F908091F801909165
:10055000F901892B31F580EC0E9485008CE191E056
:100560000E947900F5CE8730910509F4F5CE099700
:1005700009F0D8CE42E050E05093FB014093FA01DD
:100580000E94950080E80E94850081E391E00E942E
:10059000790080EC0E94850080E491E00E9479005F
:1005A000C1CE8FEF99E6A8E181509040A040E1F7DD
:1005B00000C000000E9495008091F8019091F9011F
:1005C0008B30910514F08AE090E0582E882E8694A6
:1005D00081709927880E992E911CF12C712C50E274
:1005E000652E272D30E0C90143E0880F991F4A95F9
:1005F000E1F72815390554F17C01912C80E2882E11
:100600007514C0F14FEF50E782E0415050408040F8
:10061000E1F700C0000082E00E9485009FEFA0E7A4
:10062000B2E09150A040B040E1F700C000000E944D
:100630005F0081118DCE88E10E948500EFEFF0E729
:1006400022E0E150F0402040E1F7EFCFB8010E94F6
:10065000490069866A861B86BFE3BF1524F080E8DF
:100660008F0D0E948500C8010E9479007394EAE012
:10067000FE0EB7CFB801C7010E94490089868A865D
:100680001B86FFE3F91524F080EC890D0E9485009C
:10069000C8010E94790073942AE0920E38E0E30EBC
:1006A000F11CAECF9093FD018093FC013FEF41EE32
:1006B00054E0315040405040E1F700C00000D19A72
:1006C000D9988FEF91EEA4E081509040A040E1F7DF
:1006D00000C000000E94CB00BFEFE1EEF4E0B1509B
:1006E000E040F040E1F700C000001ABA87E886B9A0
:1006F00080E487B92FEF31EE44E021503040404094
:10070000E1F700C00000F0E4EF2EAFEDFA2EBAE002
:100710009B2E0E945F0081111BCE0E943E0180E84B
:100720000E94850080EA90E00E947900E7B8369A3E
:10073000349BFECF349A8FE99FE00197F1F700C018
:10074000000064B175B1072E000C880B990B0E9454
:10075000A80626EF38E24CE950E40E9434071F92C5
:10076000FF9220E030E040E251E40E94FE050E944A
:1007700070067F936F93A9E2B1E0BF93AF931F938D
:100780000F930E94BB0780EC0E948500C8010E9465
:100790007900D801E92D1D92EA95E9F70FB6F89492
:1007A000DEBF0FBECDBFB5CFB801E3E0880F991F04
:1007B000EA95E1F70E94490080E0F801E80FF11D99
:1007C000908191111BC05FEF89E698E15150804004
:1007D0009040E1F700C00000F3948F2D90E020914D
:1007E000F8013091F90182179307F4F20E94950005
:1007F00080E80E9485008AE691E0D0CE5D9BFECF26
:100800009CB98F5FDACF9093FD018093FC010E9429
:10081000950080E80E94850080E791E00E947900C1
:10082000AFEFB9E6E8E1A150B040E040E1F700C029
:100830000000FF24FA9452E0E52E0E945F0081112F
:1008400087CDFFEF21EE34E0F15020403040E1F75A
:1008500000C00000DE9A40E54A95F1F7DE9880EC92
:1008600097E2A9E0B0E0CF99F2C00197A109B109E0
:10087000D1F70E94950084ED91E00E947900AFEFDE
:10088000B5EAEEE0A150B040E040E1F700C18130B0
:10089000910521F0029709F45BCD44CD0E949500AB
:1008A00080E80E94850088E991E00E94790080EC50
:1008B0000E9485007E0131E2E30EF11C4701312CDC
:1008C000412C512C32010E94E300E82F8F36F9F0C1
:1008D000AAE0B0E0A30192010E94A1074E2E0E2EC5
:1008E000000C550840E3441A5108052C000C66081A
:1008F0007708460E571E681E791E3394D401ED9377
:100900004D018E2F0E946900B9E03B12DCCFF70148
:10091000E30DF11D1082EFEFF3EC29E0E150F04020
:100920002040E1F700C0000031EA431A30EE530ADC
:1009300033E6630A32E0730A4FE9441646E8540688
:1009400041E064067104C8F00E94950080E80E94AE
:10095000850088EA91E00E9479000E943E015FEFE5
:1009600083ED90E3515080409040E1F700C00000DB
:10097000B092FD01A092FC0137CD1986712C470180
:10098000A8E08A0E911C8091F8019091F901272D21
:1009900030E02817390744F123E0880F991F2A9582
:1009A000E1F7F70121917F01222321F08115F4E085
:1009B0009F07E8F18091F8019091F90101969093D9
:1009C000F9018093F8010E94950080E80E9485005B
:1009D00086EB91E00E9479002FEF33ED40E3215048
:1009E00030404040E1F7C2CFB801C90133E0880F81
:1009F000991F3A95E1F70E944900D801F7019191BA
:100A00008D9198138CC0E815F905C9F70E949500DF
:100A100080E80E94850088EE91E00E9479002FEF27
:100A200039E648E1215030404040E1F79FCFE1995D
:100A3000FECF9FBB8EBB2DBBE29AE19A0196B1CF50
:100A40001092FD011092FC016DCCF394FACC1FBC06
:100A5000EEBC1DBC1CBC80EC97E2A9E0B0E0CF9BD3
:100A600019C02CB53DB521363A4EA0F40197A10925
:100A7000B109A9F70E94950089E791E00E947900E9
:100A80008FEF95EAAEE081509040A040E1F700C0C2
:100A90000000D3CE8CB59DB5B0E0A0E01EBC813681
:100AA000FAEE9F07A105B10528F7BC01CD01969587
:100AB0008795779567950E94A60626E933E44BE073
:100AC0005DE30E94340720E030E040E05FE30E94F5
:100AD000340720E030E040E05FE30E9492050E948E
:100AE0007006663071050CF0A8CEF3941F92FF9249
:100AF000EEE8F1E0FF93EF931F930F930E94BB0783
:100B00000E94950080E80E948500C8010E9479003B
:100B10000F900F900F900F900F900F908ECE7394B8
:100B200032CF5058BB27AA270E94A9050C94FA0679
:100B30000E94EC0638F00E94F30620F039F49F3F43
:100B400019F426F40C94E9060EF4E095E7FB0C94F6
:100B5000E306E92F0E940B0758F3BA1762077307E1
:100B60008407950720F079F4A6F50C942D070EF470
:100B7000E0950B2EBA2FA02D0B01B90190010C01AD
:100B8000CA01A0011124FF27591B99F0593F50F4C5
:100B9000503E68F11A16F040A22F232F342F44271D
:100BA000585FF3CF469537952795A795F040539515
:100BB000C9F77EF41F16BA0B620B730B840BBAF0E5
:100BC0009150A1F0FF0FBB1F661F771F881FC2F750
:100BD0000EC0BA0F621F731F841F48F48795779564
:100BE0006795B795F7959E3F08F0B0CF9395880F1E
:100BF00008F09927EE0F9795879508950E941206A1
:100C00000C94FA060E94F30658F00E94EC0640F09D
:100C100029F45F3F29F00C94E30651110C942E0740
:100C20000C94E9060E940B0768F39923B1F355234E
:100C300091F3951B550BBB27AA27621773078407EF
:100C400038F09F5F5F4F220F331F441FAA1FA9F385
:100C500035D00E2E3AF0E0E832D091505040E69573
:100C6000001CCAF72BD0FE2F29D0660F771F881FD4
:100C7000BB1F261737074807AB07B0E809F0BB0BC7
:100C8000802DBF01FF2793585F4F3AF09E3F5105DB
:100C900078F00C94E3060C942E075F3FE4F3983E43
:100CA000D4F3869577956795B795F7959F5FC9F7C4
:100CB000880F911D9695879597F90895E1E0660F45
:100CC000771F881FBB1F621773078407BA0720F0BE
:100CD000621B730B840BBA0BEE1F88F7E095089527
:100CE0000E9477066894B1110C942E0708950E9413
:100CF000130788F09F5798F0B92F9927B751B0F094
:100D0000E1F0660F771F881F991F1AF0BA95C9F78F
:100D100014C0B13091F00E942D07B1E008950C94F9
:100D20002D07672F782F8827B85F39F0B93FCCF3AC
:100D3000869577956795B395D9F73EF4909580950C
:100D4000709561957F4F8F4F9F4F0895E89409C02C
:100D500097FB3EF490958095709561957F4F8F4FEE
:100D60009F4F9923A9F0F92F96E9BB279395F69504
:100D7000879577956795B795F111F8CFFAF4BB0F82
:100D800011F460FF1BC06F5F7F4F8F4F9F4F16C0E6
:100D9000882311F096E911C0772321F09EE8872F70
:100DA000762F05C0662371F096E8862F70E060E02C
:100DB0002AF09A95660F771F881FDAF7880F9695A5
:100DC000879597F9089597F99F6780E870E060E04C
:100DD00008959FEF80EC089500240A9416161706D4
:100DE00018060906089500240A941216130614061C
:100DF00005060895092E0394000C11F4882352F07F
:100E0000BB0F40F4BF2B11F460FF04C06F5F7F4F36
:100E10008F4F9F4F089557FD9058440F551F59F01D
:100E20005F3F71F04795880F97FB991F61F09F3FD7
:100E300079F087950895121613061406551FF2CF00
:100E40004695F1DF08C0161617061806991FF1CF50
:100E500086957105610508940895E894BB27662777
:100E60007727CB0197F908950E9447070C94FA065B
:100E70000E94EC0638F00E94F30620F0952311F052
:100E80000C94E3060C94E90611240C942E070E949E
:100E90000B0770F3959FC1F3950F50E0551F629FAC
:100EA000F001729FBB27F00DB11D639FAA27F00DC3
:100EB000B11DAA1F649F6627B00DA11D661F829FEA
:100EC0002227B00DA11D621F739FB00DA11D621FCF
:100ED000839FA00D611D221F749F3327A00D611DEC
:100EE000231F849F600D211D822F762F6A2F1124CE
:100EF0009F5750409AF0F1F088234AF0EE0FFF1F01
:100F0000BB1F661F771F881F91505040A9F79E3F57
:100F1000510580F00C94E3060C942E075F3FE4F338
:100F2000983ED4F3869577956795B795F795E795AD
:100F30009F5FC1F7FE2B880F911D9695879597F9B6
:100F400008950E94AC07A59F900DB49F900DA49F9B
:100F5000800D911D11240895A29FB001B39FC0017F
:100F6000A39F700D811D1124911DB29F700D811DD5
:100F70001124911D0895AEE0B0E0E1ECF7E00C948F
:100F80006A0A0D891E8986E08C831A8309838FEF94
:100F90009FE79E838D83AE01475E5F4F6F89788D9B
:100FA000CE0101960E94DE072F813885020F131FA4
:100FB000F80110822E96E4E00C94860AABE0B0E0D3
:100FC000E4EEF7E00C945C0A7C013B018A01FC0131
:100FD00017821682838181FFC8C1CE0101965C0110
:100FE000F7019381F30193FD859193FF81913F0177
:100FF000882309F453C1853239F493FD859193FF19
:1010000081913F01853229F4B70190E00E94CE0919
:10101000E7CF912C212C312CFFE1F31538F08B32E6
:1010200011F190F4803209F1833229F137FC3CC090
:1010300020ED280F2A3050F536FE20C08AE0989E19
:10104000200D1124922E06C08D3291F0803371F75D
:10105000689430F8F30193FD859193FF81913F01EE
:101060008111DACF21C0689431F8689432F8F2CF58
:10107000689433F8EFCF689434F8ECCFEAE02E9E12
:10108000200D1124222E689435F8E4CF8E3229F4F5
:1010900036FC04C1689436F8DDCF8C3619F46894B8
:1010A00037F8D8CF8836B1F2982F9F7D955493307A
:1010B000E0F08336A1F18337C1F1833509F063C0D5
:1010C0002801F2E04F0E511CF801C080D180692D3B
:1010D00070E036FC02C06FEF7FEFC6010E94B809D6
:1010E0004C01689437F882010AC00C5F1F4FFFE380
:1010F000F98388248394912C6501E89437F833FEB2
:101100002DC0522C8114910471F5552009F468CF3B
:10111000B70180E290E00E94CE095A94F6CFF80120
:10112000808189830E5F1F4FE4CF2801F2E04F0ECC
:10113000511CF801C080D180692D70E036FC02C0DE
:101140006FEF7FEFC6010E94C3094C018201D5CF2A
:10115000B70180E290E00E94CE092A942814190475
:1011600009F0B0F7CECFF60137FC859137FE8191BB
:101170006F01B70190E00E94CE0951105A94F1E03E
:101180008F1A9108BFCF843619F0893609F077C0DD
:10119000F80137FE6BC060817181828193810C5FA1
:1011A0001F4FF32DFF763F2E97FF09C09095809536
:1011B000709561957F4F8F4F9F4F689437F82AE065
:1011C00030E0A5010E94FE09C82ECA188C2C432CC1
:1011D00036FE0CC0E89440F8C91440F434FE05C053
:1011E00032FC03C0F32DFE7E4F2E892C44FE95C0A9
:1011F000FE01EC0DF11D8081803309F087C0242DA4
:10120000297E422E842D8870582E43FC95C040FEC6
:101210008FC09C2C821418F42C0C922C981844FE2D
:1012200091C0B70180E390E00E94CE0942FE09C060
:1012300088E790E041FE02C088E590E0B7010E9497
:10124000CE09C91408F48AC0CA94D12C9FEFC91AD8
:10125000D90ACA0CDB1CF60182916F01B70190E03C
:101260000E94CE09AC14BD04B1F74FCF60817181EB
:10127000072E000C880B990B0E5F1F4F92CFD32CBB
:10128000E894D4F82AE030E0853739F1232D297F1E
:10129000D22E8F3601F148F48835A9F0F701868106
:1012A00097812B96E2E10C94780A803749F08837D1
:1012B000A9F7D4FE02C06894D2F820E130E00DC056
:1012C0006894D4F8F6CF34FE03C0822F8660D82EFF
:1012D00020E132E002C028E030E0F801D7FE0FC084
:1012E00060817181828193810C5F1F4FA5010E94F3
:1012F000FE09C82ECA183D2CE89437F867CF6081E4
:10130000718190E080E00E5F1F4FF0CF42FC02C081
:10131000839478CF8394839475CF842D867809F451
:1013200071CFF6CFB70180E290E00E94CE0983949E
:101330008214C0F3512C73CF522C5818821408F425
:101340006ECFF8CF842D867809F47BCF8BE241FEF7
:1013500080E247FC8DE2B70190E071CFB70180E3F6
:1013600090E00E94CE099A946CCF8FEF9FEF99CFB7
:10137000FC010590615070400110D8F78095909560
:101380008E0F9F1F0895FC01615070400190011065
:10139000D8F7809590958E0F9F1F08950F931F93F8
:1013A000CF93DF93182F092FEB018B8181FD09C0AB
:1013B0001FEF0FEF812F902FDF91CF911F910F9192
:1013C000089582FF14C02E813F818C819D81281752
:1013D00039073CF4E881F981CF010196998388832C
:1013E00010838E819F8101969F838E83E3CFE88552
:1013F000F985812F0995892BA1F3DACFFA01AA2764
:10140000283051F1203181F1E8946F936E7F6E5F47
:101410007F4F8F4F9F4FAF4FB1E03ED0B4E03CD0F5
:10142000670F781F891F9A1FA11D680F791F8A1FD8
:10143000911DA11D6A0F711D811D911DA11D20D03F
:1014400009F468943F912AE0269F11243019305DF9
:101450003193DEF6CF010895462F4770405D4193EA
:10146000B3E00FD0C9F7F6CF462F4F70405D4A3337
:1014700018F0495D31FD4052419302D0A9F7EACFFF
:10148000B4E0A6959795879577956795BA95C9F72E
:1014900000976105710508959B01AC010A2E069421
:1014A0005795479537952795BA95C9F7620F731FDA
:1014B000841F951FA01D08952F923F924F925F9217
:1014C0006F927F928F929F92AF92BF92CF92DF9254
:1014D000EF92FF920F931F93CF93DF93CDB7DEB7B9
:1014E000CA1BDB0B0FB6F894DEBF0FBECDBF09944D
:1014F0002A88398848885F846E847D848C849B84A4
:10150000AA84B984C884DF80EE80FD800C811B81B1
:10151000AA81B981CE0FD11D0FB6F894DEBF0FBEE0
:0A152000CDBFED010895F894FFCF50
:10152A003738393435363132336F303D417474656A
:10153A006E64616E636520526561647900312E7351
:10154A0075626D69742020322E6578697400332EB5
:10155A00566965772050726573656E747300342E10
:10156A0054656D706572617475726500312E4174CF
:10157A0074656E6420696E697400322E73747564C2
:10158A00656E74206D676D6E7400373A3D42414353
:10159A004B2020393A3D4E4558540070726573739A
:1015AA0020616E79206B65792E2E2E00536561724B
:1015BA0063682053747564656E743A005374756475
:1015CA00656E74004E6F7420466F756E642100500C
:1015DA00726573656E74733A202564004E6F2053EA
:1015EA00747564656E74732E002564256343202028
:1015FA0000352E73747564656E74206461746100BD
:10160A00362E547261666963206D6F6E69746F72EB
:10161A00004E6F2073747564656E747300746F2066
:10162A0072657472696576652100446F6E65210082
:10163A00436F756E743A2030004E6F204F62737498
:10164A0061636C6520446574656374656400436F07
:10165A00756E743A2025640053747564656E74203F
:10166A004E756D6265723A004E6F74204163636510
:10167A00707465642100436F64652041636365701B
:10168A00746564210053747564656E7420466F75C1
:10169A006E6421004572726F723A204563686F204A
:1016AA0074696D656F757400616C72656164792027
:0816BA0074616B656E210000F4
:00000001FF
