:100000000C942A000C9434000C9434000C943400AA
:100010000C9434000C9434000C9434000C94340090
:100020000C9434000C9434000C9434000C94340080
:100030000C9434000C9434000C9434000C94340070
:100040000C9434000C9434000C9434000C94340060
:100050000C94340011241FBECFE5D8E0DEBFCDBF25
:100060000E946D000C9486000C940000A0E1B0E0AA
:1000700030E020E0822FAD01022E01C0440F0A942F
:10008000EAF744BB409545BB50E040E063B370E005
:10009000042E02C0759567950A94E2F760FD11C0C1
:1000A0008F5F942F990F940F890F8B3031F08C3024
:1000B00031F08A3089F48AE2089580E0089583E27D
:1000C00008954F5F5F4F4430510501F72F5F3F4F59
:1000D0002330310579F6CCCF089583E389B910BC7C
:1000E00088E18AB986E080BD8FEF87BB18BA0E948D
:1000F00036008A3008F488BB2FEF89E698E121505A
:1001000080409040E1F700C00000F1CFF894FFCFAD
:00000001FF
