:100000000C942A000C9447000C9447000C94470071
:100010000C9447000C9447000C9447000C94470044
:100020000C9447000C9447000C9447000C94470034
:100030000C9447000C9447000C9447000C94470024
:100040000C9447000C9447000C9447000C94470014
:100050000C94470011241FBECFE5D8E0DEBFCDBF12
:1000600011E0A0E6B0E0ECE5F4E102C005900D92ED
:10007000AE3CB107D9F723E0AEECB1E001C01D9270
:10008000A436B207E1F70E9474010C942C0A0C9478
:10009000000085BB959A9698979A82E08A95F1F729
:1000A00000C097988FEC97E00197F1F700C000002F
:1000B0000895CF93DF93EC018991811103C0DF9103
:1000C000CF9108950E944900F7CFEF92FF920F93CE
:1000D0001F93CF93DF93CDB7DEB72A970FB6F8946F
:1000E000DEBF0FBECDBF8E010F5F1F4F009731F5F2
:1000F00080E3898321E030E0F801E20FF31F1082F2
:10010000BF01D801A801409550959A01260F371FCD
:10011000CD01801B910B821793070CF1C8010E943F
:1001200059002A960FB6F894DEBF0FBECDBFDF91FF
:10013000CF911F910F91FF90EF900895F80130E05B
:1001400020E04AE0E42EF12C2F5F3F4FB7010E94E0
:100150002607805D8193CB010097B1F7CDCF8D91BC
:10016000FB019291BF019D0121503109F90190835A
:10017000FB018083CACF85BB95989698979A82E0B9
:100180008A95F1F700C097988FE697E10197F1F70C
:1001900000C00000089581E00E94BB0080E80C943C
:1001A000BB000E94CB0080E80E94BB008CE690E080
:1001B0000E94590080EC0E94BB008DE790E00C94F7
:1001C00059000E94CB0080E80E94BB008EE890E0BE
:1001D0000E94590080EC0E94BB008EE990E00C94D4
:1001E00059000E94CB0080E80E94BB008CEA90E09E
:1001F0000E94590080EC0E94BB008AEB90E00C94B6
:1002000059008FEF81BB84BB8FE39CE90197F1F725
:1002100000C0000088E30E94BB008CE00E94BB008D
:1002200086E00E94BB0081E00E94BB0080E80C9445
:10023000BB0088B38F7088BB86B38F708F30C9F7CF
:100240008AE08A95F1F700C086B38F708F30C1F7CE
:100250008AE08A95F1F700C086B38F708F3081F7FE
:100260002FEE3FED4FEB9FE728BB86B38F708F30AB
:10027000E1F438BB86B38F708F30C9F448BB86B3C6
:100280008F708F30B1F498BB86B38F708F3061F36D
:1002900023E030E08E3079F4F901EE0FFF1FE20F1A
:1002A000F31FE05AFF4F8081089520E0F2CF21E054
:1002B000F0CF22E0EECF8D3049F4F901EE0FFF1FB1
:1002C000E20FF31FE05AFF4F818108958B3049F40C
:1002D000F901EE0FFF1FE20FF31FE05AFF4F82817B
:1002E00008952F5F3F4FD8CFCF93DF93CDB7DEB7C1
:1002F00060970FB6F894DEBF0FBECDBF87E689B911
:1003000010BC88E18AB986E080BDD69A0E940101BE
:1003100080EF87BB8FEF88BB0E94CB0080E80E94F4
:10032000BB008AEC90E00E94590080EC0E94BB0068
:100330008BED90E00E9459000E9419010E94F1008B
:1003400022E0C22ED12CEE24E394F12C0E9419015C
:10035000082E000C990BC097209162033091630323
:100360002230310509F4F7C270F42115310599F0F6
:100370002130310559F78130910509F458C20297AF
:1003800009F4A2C0E3CF2730310500F710926303D0
:1003900010926203A1C0209160033091610321306B
:1003A000310509F4A5C098F02230310579F6863080
:1003B000910509F402C28730910509F492C0853095
:1003C000910521F69093630380936203BFCF82303F
:1003D000910579F08930910509F483C08130910548
:1003E00009F0B4CF90936303809362030E94D1001D
:1003F000ADCF90936303809362030E94CB0080E8AB
:100400000E94BB008CEE90E00E94590080EC0E949C
:10041000BB00812C912C54010E941901E82F8F36CA
:1004200019F520915E0330915F03EEECF1E090E06E
:1004300080E08217930784F10E94CB0080E80E943D
:10044000BB008BE091E00E94590080EC0E94BB0051
:1004500083E191E00E9459009FEFE3EDF0E39150BA
:10046000E040F040E1F72EC0AAE0B0E0A501940121
:100470000E943A072E2F0E2E000C330B2053310909
:100480004901330FAA08BB08860E971EA81EB91E85
:100490008E2F0E944900C0CF41915191619171917D
:1004A00084169506A606B706D1F40E94CB008CEF01
:1004B00090E00E9459002FEF43ED80E3215040402F
:1004C0008040E1F700C000001092630310926203C5
:1004D00010926103109260030E94F10037CF0196E1
:1004E000A8CFF0926103E09260030E94E1002ECF5A
:1004F0008430910509F4B6C00CF044C083309105F6
:1005000009F024CF90936303809362030E94CB0091
:1005100080E80E94BB008EE191E00E94590080912A
:100520005E0390915F030E9465002FEF41EE84E02F
:10053000215040408040E1F700C000000E94CB0005
:1005400080E80E94BB008091CE019091CF010E9473
:10055000650080EC0E94BB008091D2019091D30194
:100560000E94650010E000E080915E0390915F03BF
:10057000892B11F580EC0E94BB008FE291E00E9474
:100580005900E4CE8730910509F4A2CF099709F00C
:10059000DDCED0926103C09260030E94CB0080E860
:1005A0000E94BB0084E491E00E94590080EC0E940C
:1005B000BB0083E591E0E3CF0E9419018033A9F5E8
:1005C0000F5F1F4F80915E0390915F03081719071B
:1005D00014F010E000E00E94CB005801AA0CBB1CF4
:1005E00080915E0390915F038A159B055CF180E822
:1005F0000E94BB00F801B3E0EE0FFF1FBA95E1F7D0
:10060000E253FE4F808191810E94650080EC0E9440
:10061000BB00F501EE0FFF1FEE0FFF1FEE52FE4F66
:10062000808191810E9465009FCF883341F410162C
:10063000110614F001E010E001501109CCCF8F3603
:1006400051F684CE80FF90CF80E80E94BB00E091FD
:100650005E03F0915F03EE0FFF1FEE0FFF1FE653E7
:10066000FE4FDECF90936303809362039FEFE1EE32
:10067000F4E09150E040F040E1F700C00000D19A72
:10068000D9982FEF41EE84E0215040408040E1F7BF
:1006900000C000000E9401019FEFE1EEF4E09150E4
:1006A000E040F040E1F700C000001ABA87E886B9E0
:1006B00080E487B92FEF41EE84E021504040804034
:1006C000E1F700C0000050E4B52E6FEDC62E7CE3CC
:1006D000E72E71E0F72E8E010F5F1F4FEAE0DE2E4E
:1006E0008BB38D6F8BBB9FEFE3ECF9E09150E04053
:1006F000F040E1F700C000008BB382708BBB2FEF9E
:1007000041EE84E0215040408040E1F700C000000D
:100710009FEFE3EDF0E39150E040F040E1F700C0DF
:10072000000080E80E94BB0080EA90E00E9459002F
:10073000B7B8369A349BFECF349A8FE99FE0019781
:10074000F1F700C0000064B175B1072E000C880BF2
:10075000990B0E942D0626EF38E24CE950E40E94E6
:10076000B9061F92CF9220E030E040E251E40E94AF
:1007700083050E94F5057F936F93FF92EF921F937D
:100780000F930E94540780EC0E94BB00C8010E9496
:1007900059009FEFE3EDF0E39150E040F040E1F7C6
:1007A00000C00000F8012D2D11922A95E9F70FB62F
:1007B000F894DEBF0FBECDBF93CF909363038093B9
:1007C000620380E80E94BB0084E691E00E94590029
:1007D000DD24DA9442E0C42E02E811E0FE013196F5
:1007E0007F01FFEF21EE44E0F15020404040E1F76F
:1007F00000C00000DE9A80E58A95F1F7DE9880EC73
:1008000097E2A9E0B0E0CF99ABC00197A109B10987
:10081000D1F70E94CB0089EB91E00E9459002FEFA5
:1008200045EA8EE0215040408040E1F7B9C00E9487
:10083000CB0080E80E94BB008CE891E00E94590048
:1008400080EC0E94BB00812C912C54010E94190164
:10085000E82F8F36C1F0AAE0B0E0A50194010E9414
:100860003A072E2F0E2E000C330B2053310949016D
:10087000330FAA08BB08860E971EA81EB91E8E2F1E
:100880000E944900E3CF8FEF93ECE9E08150904064
:10089000E040E1F700C00000D501C401815A904E4C
:1008A000A346B2408F399648A140B10578F10E9425
:1008B000CB0080E80E94BB008CE991E00E945900C7
:1008C0008BB38D6F8BBB2FEF43EC89E02150404001
:1008D0008040E1F700C000008BB382708BBB9FEFBC
:1008E000E1EEF4E09150E040F040E1F700C000009C
:1008F0002FEF43ED80E3215040408040E1F700C0FE
:100900000000F0926303E092620370CD80915E0379
:1009100090915F03FC01EE0FFF1FEE0FFF1FE253EC
:10092000FE4F80829182A282B382019690935F03F0
:1009300080935E030E94CB0080E80E94BB008AEA9D
:1009400091E00E9459009FEFE3EDF0E39150E04009
:10095000F040E1F7D4CF1092630310926203F6CC1B
:100960001FBCCEBC1DBC1CBC80EC97E2A9E0B0E073
:10097000CF9B19C02CB53DB521363A4EA0F4019756
:10098000A109B109A9F70E94CB008DE691E00E9470
:100990005900FFEF25EA4EE0F15020404040E1F7DA
:1009A00000C000001ECF8CB59DB5B0E0A0E01EBC1D
:1009B0008136EAEE9E07A105B10528F7BC01CD01FD
:1009C00096958795779567950E942B0626E933E4DF
:1009D0004BE05DE30E94B90620E030E040E05FE3D9
:1009E0000E94B90620E030E040E05FE30E94170576
:1009F0000E94F505663071050CF0F3CED3941F927A
:100A0000DF921F930F93FF92EF920E9454070E9470
:100A1000CB0080E80E94BB00C7010E9459000F90E4
:100A20000F900F900F900F900F90DBCE5058BB2778
:100A3000AA270E942E050C947F060E94710638F0AA
:100A40000E94780620F039F49F3F19F426F40C94A4
:100A50006E060EF4E095E7FB0C946806E92F0E9401
:100A6000900658F3BA17620773078407950720F0BA
:100A700079F4A6F50C94B2060EF4E0950B2EBA2F7D
:100A8000A02D0B01B90190010C01CA01A001112494
:100A9000FF27591B99F0593F50F4503E68F11A1640
:100AA000F040A22F232F342F4427585FF3CF4695D1
:100AB00037952795A795F0405395C9F77EF41F16F3
:100AC000BA0B620B730B840BBAF09150A1F0FF0FBD
:100AD000BB1F661F771F881FC2F70EC0BA0F621FA9
:100AE000731F841F48F4879577956795B795F79599
:100AF0009E3F08F0B0CF9395880F08F09927EE0F2E
:100B00009795879508950E9497050C947F060E94FB
:100B1000780658F00E94710640F029F45F3F29F0F2
:100B20000C94680651110C94B3060C946E060E9446
:100B3000900668F39923B1F3552391F3951B550B58
:100B4000BB27AA2762177307840738F09F5F5F4FA0
:100B5000220F331F441FAA1FA9F335D00E2E3AF0DF
:100B6000E0E832D091505040E695001CCAF72BD0F7
:100B7000FE2F29D0660F771F881FBB1F2617370748
:100B80004807AB07B0E809F0BB0B802DBF01FF277A
:100B900093585F4F3AF09E3F510578F00C946806E9
:100BA0000C94B3065F3FE4F3983ED4F386957795B3
:100BB0006795B795F7959F5FC9F7880F911D969533
:100BC000879597F90895E1E0660F771F881FBB1F8F
:100BD000621773078407BA0720F0621B730B840B3C
:100BE000BA0BEE1F88F7E09508950E94FC05689403
:100BF000B1110C94B30608950E94980688F09F578F
:100C000098F0B92F9927B751B0F0E1F0660F771F30
:100C1000881F991F1AF0BA95C9F714C0B13091F026
:100C20000E94B206B1E008950C94B206672F782FA7
:100C30008827B85F39F0B93FCCF3869577956795EB
:100C4000B395D9F73EF490958095709561957F4F57
:100C50008F4F9F4F0895E89409C097FB3EF49095FD
:100C60008095709561957F4F8F4F9F4F9923A9F085
:100C7000F92F96E9BB279395F69587957795679514
:100C8000B795F111F8CFFAF4BB0F11F460FF1BC058
:100C90006F5F7F4F8F4F9F4F16C0882311F096E9EB
:100CA00011C0772321F09EE8872F762F05C0662399
:100CB00071F096E8862F70E060E02AF09A95660F52
:100CC000771F881FDAF7880F9695879597F908950B
:100CD00097F99F6780E870E060E008959FEF80ECEF
:100CE000089500240A941616170618060906089592
:100CF00000240A9412161306140605060895092EF8
:100D00000394000C11F4882352F0BB0F40F4BF2B66
:100D100011F460FF04C06F5F7F4F8F4F9F4F0895A6
:100D200057FD9058440F551F59F05F3F71F047959C
:100D3000880F97FB991F61F09F3F79F08795089581
:100D4000121613061406551FF2CF4695F1DF08C0A0
:100D5000161617061806991FF1CF869571056105BD
:100D600008940895E894BB2766277727CB0197F965
:100D700008950E94CC060C947F060E94710638F0FC
:100D80000E94780620F0952311F00C9468060C94CC
:100D90006E0611240C94B3060E94900670F3959F82
:100DA000C1F3950F50E0551F629FF001729FBB2762
:100DB000F00DB11D639FAA27F00DB11DAA1F649FFE
:100DC0006627B00DA11D661F829F2227B00DA11DB1
:100DD000621F739FB00DA11D621F839FA00D611D37
:100DE000221F749F3327A00D611D231F849F600D58
:100DF000211D822F762F6A2F11249F5750409AF081
:100E0000F1F088234AF0EE0FFF1FBB1F661F771F0C
:100E1000881F91505040A9F79E3F510580F00C94D7
:100E200068060C94B3065F3FE4F3983ED4F38695CE
:100E300077956795B795F795E7959F5FC1F7FE2B77
:100E4000880F911D9695879597F90895AA1BBB1B4E
:100E500051E107C0AA1FBB1FA617B70710F0A61BBA
:100E6000B70B881F991F5A95A9F780959095BC01DB
:100E7000CD0108950E944507A59F900DB49F900D48
:100E8000A49F800D911D11240895A29FB001B39FCE
:100E9000C001A39F700D811D1124911DB29F700D83
:100EA000811D1124911D0895AEE0B0E0EAE5F7E060
:100EB0000C94030A0D891E8986E08C831A830983AA
:100EC0008FEF9FE79E838D83AE01475E5F4F6F89F3
:100ED000788DCE0101960E9477072F813885020F09
:100EE000131FF80110822E96E4E00C941F0AABE069
:100EF000B0E0EDE7F7E00C94F5097C013B018A01D5
:100F0000FC0117821682838181FFC8C1CE01019640
:100F10005C01F7019381F30193FD859193FF81912A
:100F20003F01882309F453C1853239F493FD85913B
:100F300093FF81913F01853229F4B70190E00E942F
:100F40006709E7CF912C212C312CFFE1F31538F004
:100F50008B3211F190F4803209F1833229F137FCA0
:100F60003CC020ED280F2A3050F536FE20C08AE024
:100F7000989E200D1124922E06C08D3291F0803360
:100F800071F7689430F8F30193FD859193FF819197
:100F90003F018111DACF21C0689431F8689432F8AA
:100FA000F2CF689433F8EFCF689434F8ECCFEAE0EE
:100FB0002E9E200D1124222E689435F8E4CF8E3217
:100FC00029F436FC04C1689436F8DDCF8C3619F468
:100FD000689437F8D8CF8836B1F2982F9F7D955412
:100FE0009330E0F08336A1F18337C1F1833509F006
:100FF00063C02801F2E04F0E511CF801C080D1807F
:10100000692D70E036FC02C06FEF7FEFC6010E94D1
:1010100051094C01689437F882010AC00C5F1F4FD8
:10102000FFE3F98388248394912C6501E89437F8D1
:1010300033FE2DC0522C8114910471F5552009F412
:1010400068CFB70180E290E00E9467095A94F6CF1A
:10105000F801808189830E5F1F4FE4CF2801F2E001
:101060004F0E511CF801C080D180692D70E036FC14
:1010700002C06FEF7FEFC6010E945C094C01820144
:10108000D5CFB70180E290E00E9467092A94281426
:10109000190409F0B0F7CECFF60137FC859137FE81
:1010A00081916F01B70190E00E94670951105A9435
:1010B000F1E08F1A9108BFCF843619F0893609F014
:1010C00077C0F80137FE6BC06081718182819381A6
:1010D0000C5F1F4FF32DFF763F2E97FF09C09095B1
:1010E0008095709561957F4F8F4F9F4F689437F82B
:1010F0002AE030E0A5010E949709C82ECA188C2C5E
:10110000432C36FE0CC0E89440F8C91440F434FE79
:1011100005C032FC03C0F32DFE7E4F2E892C44FE09
:1011200095C0FE01EC0DF11D8081803309F087C070
:10113000242D297E422E842D8870582E43FC95C084
:1011400040FE8FC09C2C821418F42C0C922C981802
:1011500044FE91C0B70180E390E00E94670942FE1F
:1011600009C088E790E041FE02C088E590E0B70141
:101170000E946709C91408F48AC0CA94D12C9FEF51
:10118000C91AD90ACA0CDB1CF60182916F01B7019A
:1011900090E00E946709AC14BD04B1F74FCF6081A5
:1011A0007181072E000C880B990B0E5F1F4F92CF99
:1011B000D32CE894D4F82AE030E0853739F1232D98
:1011C000297FD22E8F3601F148F48835A9F0F70136
:1011D000868197812B96E2E10C94110A803749F0C1
:1011E0008837A9F7D4FE02C06894D2F820E130E035
:1011F0000DC06894D4F8F6CF34FE03C0822F866009
:10120000D82E20E132E002C028E030E0F801D7FE1D
:101210000FC060817181828193810C5F1F4FA50196
:101220000E949709C82ECA183D2CE89437F867CF5A
:101230006081718190E080E00E5F1F4FF0CF42FC33
:1012400002C0839478CF8394839475CF842D86785D
:1012500009F471CFF6CFB70180E290E00E946709F0
:1012600083948214C0F3512C73CF522C58188214DB
:1012700008F46ECFF8CF842D867809F47BCF8BE20B
:1012800041FE80E247FC8DE2B70190E071CFB701EB
:1012900080E390E00E9467099A946CCF8FEF9FEFF4
:1012A00099CFFC010590615070400110D8F78095EE
:1012B00090958E0F9F1F0895FC0161507040019022
:1012C0000110D8F7809590958E0F9F1F08950F936A
:1012D0001F93CF93DF93182F092FEB018B8181FD93
:1012E00009C01FEF0FEF812F902FDF91CF911F913A
:1012F0000F91089582FF14C02E813F818C819D81C2
:10130000281739073CF4E881F981CF0101969983C8
:10131000888310838E819F8101969F838E83E3CF84
:10132000E885F985812F0995892BA1F3DACFFA0198
:10133000AA27283051F1203181F1E8946F936E7F14
:101340006E5F7F4F8F4F9F4FAF4FB1E03ED0B4E005
:101350003CD0670F781F891F9A1FA11D680F791F46
:101360008A1F911DA11D6A0F711D811D911DA11D57
:1013700020D009F468943F912AE0269F1124301967
:10138000305D3193DEF6CF010895462F4770405D02
:101390004193B3E00FD0C9F7F6CF462F4F70405DB1
:1013A0004A3318F0495D31FD4052419302D0A9F70C
:1013B000EACFB4E0A6959795879577956795BA9506
:1013C000C9F700976105710508959B01AC010A2ECC
:1013D00006945795479537952795BA95C9F7620FA3
:1013E000731F841F951FA01D08952F923F924F9247
:1013F0005F926F927F928F929F92AF92BF92CF92A5
:10140000DF92EF92FF920F931F93CF93DF93CDB7AD
:10141000DEB7CA1BDB0B0FB6F894DEBF0FBECDBF25
:1014200009942A88398848885F846E847D848C84F6
:101430009B84AA84B984C884DF80EE80FD800C81FF
:101440001B81AA81B981CE0FD11D0FB6F894DEBFE2
:0C1450000FBECDBFED010895F894FFCF52
:10145C003738393435363132336F303D4174746539
:10146C006E64616E636520526561647900312E7320
:10147C0075626D69742020322E6578697400332E84
:10148C00566965772050726573656E747300342EDF
:10149C0054656D706572617475726500312E41749E
:1014AC0074656E6420696E697400322E7374756491
:1014BC00656E74206D676D6E7400373A3D42414322
:1014CC004B2020393A3D4E45585400707265737369
:1014DC0020616E79206B65792E2E2E00536561721A
:1014EC0063682053747564656E743A005374756444
:1014FC00656E7420466F756E642100537475646557
:10150C006E74004E6F7420466F756E6421005072BD
:10151C006573656E742053747564656E7473004ED8
:10152C006F2053747564656E74732E002564256387
:10153C0043202000352E73747564656E74206461CD
:10154C00746100362E547261666963206D6F6E692A
:10155C00746F7200436F756E743A2030004E6F20BA
:10156C004F62737461636C65204465746563746564
:10157C006400436F756E743A20256400537475646F
:10158C00656E74204E756D6265723A004E6F7420F4
:10159C0041636365707465642100436F6465204129
:1015AC006363657074656421004572726F723A20D2
:0E15BC004563686F2074696D656F757400007B
:00000001FF
