:100000000C942A000C9447000C9447000C94470071
:100010000C9447000C9447000C9447000C94470044
:100020000C9447000C9447000C9447000C94470034
:100030000C9447000C9447000C9447000C94470024
:100040000C9447000C9447000C9447000C94470014
:100050000C94470011241FBECFE5D8E0DEBFCDBF12
:1000600011E0A0E6B0E0EAEDF7E002C005900D92E5
:10007000AE3DB107D9F723E0AEEDB1E001C01D926E
:10008000AA37B207E1F70E945C010C94EB030C94D1
:10009000000085BB959A9698979A82E08A95F1F729
:1000A00000C097988FEC97E00197F1F700C000002F
:1000B0000895CF93DF93EC018991811103C0DF9103
:1000C000CF9108950E944900F7CFEF92FF920F93CE
:1000D0001F93CF93DF93CDB7DEB72A970FB6F8946F
:1000E000DEBF0FBECDBF8E010F5F1F4F009731F5F2
:1000F00080E3898321E030E0F801E20FF31F1082F2
:10010000BF01D801A801409550959A01260F371FCD
:10011000CD01801B910B821793070CF1C8010E943F
:1001200059002A960FB6F894DEBF0FBECDBFDF91FF
:10013000CF911F910F91FF90EF900895F80130E05B
:1001400020E04AE0E42EF12C2F5F3F4FB7010E94E0
:100150008C03805D8193CB010097B1F7CDCF8D915A
:10016000FB019291BF019D0121503109F90190835A
:10017000FB018083CACF85BB95989698979A82E0B9
:100180008A95F1F700C097988FE697E10197F1F70C
:1001900000C00000089581E00E94BB0080E80C943C
:1001A000BB000E94CB0080E80E94BB008CE690E080
:1001B0000E94590080EC0E94BB008DE790E00C94F7
:1001C00059000E94CB0080E80E94BB008EE890E0BE
:1001D0000E94590080EC0E94BB008EE990E00C94D4
:1001E00059000E94CB0080E80E94BB008CEA90E09E
:1001F0000E94590080EC0E94BB008AEB90E00C94B6
:10020000590088B38F7088BB86B38F708F30C9F761
:100210008AE08A95F1F700C086B38F708F30C1F7FE
:100220008AE08A95F1F700C086B38F708F3081F72E
:100230002FEE3FED4FEB9FE728BB86B38F708F30DB
:10024000E1F438BB86B38F708F30C9F448BB86B3F6
:100250008F708F30B1F498BB86B38F708F3061F39D
:1002600023E030E08E3079F4F901EE0FFF1FE20F4A
:10027000F31FE05AFF4F8081089520E0F2CF21E084
:10028000F0CF22E0EECF8D3049F4F901EE0FFF1FE1
:10029000E20FF31FE05AFF4F818108958B3049F43C
:1002A000F901EE0FFF1FE20FF31FE05AFF4F8281AB
:1002B00008952F5F3F4FD8CF87E689B910BC88E1FA
:1002C0008AB986E080BDCFEFC1BBC4BB8FE39CE998
:1002D0000197F1F700C0000088E30E94BB008CE0AA
:1002E0000E94BB0086E00E94BB0081E00E94BB0030
:1002F00080E80E94BB0080EF87BBC8BB0E94CB0098
:1003000080E80E94BB008AEC90E00E94590080ECDB
:100310000E94BB008BED90E00E9459000E940101F9
:100320000E94F100C1E0D0E002E010E00E94010173
:10033000082E000C990BC097E0917203F0917303A3
:10034000E730F10598F7E955FE4F0C94A003AE0194
:100350001602A202F1028103860389032091700331
:100360003091710321303105D9F168F02230310527
:10037000E9F686309105E1F18730910551F185303C
:100380009105A1F635C08230910569F0893091055B
:1003900001F18130910551F69093730380937203BC
:1003A0000E94D100C3CF90937303809372030E9485
:1003B000CB008CEE90E00E94590080EC0E94BB00C4
:1003C00090E080E00E94590080E091E00E94590096
:1003D000ADCFD0937103C09370030E94E100A6CF0C
:1003E0008430910529F04CF48330910509F09ECFBB
:1003F000909373038093720399CF8730910501F135
:10040000099709F093CF10937103009370030E9432
:10041000CB0080E80E94BB0081E191E00E9459007E
:1004200080EC0E94BB0080E291E0D0CF813091054A
:1004300071F0029709F07ACF109273031092720351
:1004400010927103109270030E94F1006FCF0E940E
:10045000CB0080E80E94BB0090E080E00E94590041
:1004600081E391E00E94590080EC0E94BB0090E083
:1004700080E00E945900C12CD12C76010E9401011C
:10048000E82F8F36C1F0AAE0B0E0A70196010E94E4
:10049000A6032E2F0E2E000C330B205331096901B9
:1004A000330FEE08FF08C60ED71EE81EF91E8E2F6A
:1004B0000E944900E3CF9FEF23EC89E09150204058
:1004C0008040E1F700C00000D701C601815A904E7C
:1004D000A346B2408F399648A140B105B8F00E94BA
:1004E000CB0080E80E94BB0081E491E00E945900AB
:1004F0008FEF93ED20E3815090402040E1F700C062
:100500000000D0937303C09372034ACF80916E03AF
:1005100090916F03FC01EE0FFF1FEE0FFF1FE252E1
:10052000FE4FC082D182E282F382019690936F03E4
:1005300080936E030E94CB0080E80E94BB008FE492
:1005400091E0D4CFC12CD12C76010E940101E82F7B
:100550008F3681F420916E0330916F03EEEDF1E060
:1005600090E080E082179307ECF00E94CB008DE6CC
:1005700091E025C0AAE0B0E0A70196010E94A60381
:100580004E2F0E2E000C550B405351096A01550F8A
:10059000EE08FF08C60ED71EE81EF91E8E2F0E9419
:1005A0004900D3CF4191519161917191C416D50603
:1005B000E606F706A1F40E94CB008EE591E00E94CA
:1005C00059008FEF91EE24E0815090402040E1F7F8
:1005D00000C000001092730310927203A7CE019620
:1005E000C1CF0E94CB0080E80E94BB0090E080E079
:1005F0000E94590080E891E00E94590080916E03AA
:1006000090916F030E9465008FEF91EE24E081507E
:1006100090402040E1F700C000000E94CB0080E83D
:100620000E94BB0090E080E00E9459008091DE01B2
:100630009091DF010E94650080EC0E94BB0090E079
:1006400080E00E9459008091E2019091E3010E94B4
:100650006500F12CE12C0E9401018033A9F58FEF98
:10066000E81AF80A0E94CB006701CC0CDD1C8091CF
:100670006E0390916F038C159D057CF180E80E94BC
:10068000BB0090E080E00E945900F70193E0EE0F7C
:10069000FF1F9A95E1F7E252FE4F808191810E94FF
:1006A000650080EC0E94BB0090E080E00E94590051
:1006B000F601EE0FFF1FEE0FFF1FEE51FE4F808180
:1006C00091810E946500C7CF883321F491E0E91A37
:1006D000F108C8CF8F3631F67DCF80FFBCCF80E8E0
:1006E0000E94BB0090E080E00E945900E0916E0300
:1006F000F0916F03EE0FFF1FEE0FFF1FE652FE4F4C
:10070000DECF82E991E00E94C00364CF8CEA91E0E1
:10071000FACF88EC91E0F7CFAA1BBB1B51E107C0D1
:10072000AA1FBB1FA617B70710F0A61BB70B881F81
:10073000991F5A95A9F780959095BC01CD01089510
:10074000EE0FFF1F0590F491E02D09940E94B10374
:10075000A59F900DB49F900DA49F800D911D112415
:100760000895A29FB001B39FC001A39F700D811D8A
:100770001124911DB29F700D811D1124911D0895AA
:100780000F931F93CF93DF93E0917603F09177035C
:100790002381EC0110E000E021FD08C00FEF1FEF06
:1007A00014C00995892B11F00FEF1FEF899160910B
:1007B000760370917703DB011896ED91FC9181111E
:1007C000F0CF8AE00995892B49F7C801DF91CF91D5
:0A07D0001F910F910895F894FFCFD8
:1007DA003738393435363132336F303D41747465C8
:1007EA006E64616E636520526561647900312E73AF
:1007FA0075626D69742020322E6578697400332E13
:10080A00566965772050726573656E747300342E6D
:10081A0054656D706572617475726500312E41742C
:10082A0074656E6420696E697400322E737475641F
:10083A00656E74206D676D6E7400373A3D424143B0
:10084A004B2020393A3D4E455854007072657373F7
:10085A0020616E79206B65792E2E2E00456E7465A7
:10086A00722053747564656E7420436F64653A0030
:10087A0053747564656E74204E756D6265723A20A4
:10088A0000352E73747564656E742064617461003A
:10089A00362E547261666963206D6F6E69746F7269
:1008AA000053747564656E74204E756D6265723A94
:1008BA00004E6F7420416363657074656421004360
:1008CA006F646520416363657074656421005374C5
:1008DA007564656E7420466F756E64210053747575
:1008EA0064656E74204E6F7420466F756E642100C5
:1008FA0050726573656E742053747564656E747393
:10090A003A004D6F6E69746F72696E672054656D37
:10091A0070657261747572652E2E2E00526574723E
:10092A00696576696E6E672053747564656E7420A6
:10093A00446174612E2E2E004D6F6E69746F726958
:0E094A006E6720547261666669632E2E2E0061
:00000001FF
