:100000000C942A000C9447000C9447000C94470071
:100010000C9447000C9447000C9447000C94470044
:100020000C9447000C9447000C9447000C94470034
:100030000C9447000C9447000C9447000C94470024
:100040000C9447000C9447000C9447000C94470014
:100050000C94470011241FBECFE5D8E0DEBFCDBF12
:1000600011E0A0E6B0E0EEE5F4E102C005900D92EB
:10007000A83EB107D9F723E0A8EEB1E001C01D9278
:10008000AE37B207E1F70E9434010C942D0A0C94AC
:100090000000FB019B01285F3F4F811544E094075E
:1000A00058F4E199FECF9FBB8EBBE09A4DB34193CC
:1000B0000196E217F30789F7FB011086089585BBC7
:1000C000959A9698979A82E08A95F1F700C097984A
:1000D0008FEC97E00197F1F700C000000895CF93EF
:1000E000DF93EC018991811103C0DF91CF910895D5
:1000F0000E945F00F7CF85BB95989698979A82E00B
:100100008A95F1F700C097988FE697E10197F1F78C
:1001100000C00000089581E00E947B0080E80C94FC
:100120007B000E948B0080E80E947B008CE690E0C0
:100130000E946F0080EC0E947B008DE790E00C94A1
:100140006F000E948B0080E80E947B008EE890E0A8
:100150000E946F0080EC0E947B008EE990E00C947E
:100160006F000E948B0080E80E947B008CEA90E088
:100170000E946F0080EC0E947B008AEB90E00C9460
:100180006F008FEF81BB84BB8FE39CE90197F1F790
:1001900000C0000088E30E947B008CE00E947B008E
:1001A00086E00E947B0081E00E947B0080E80C9446
:1001B0007B0088B38F7088BB86B38F708F30C9F790
:1001C0008AE08A95F1F700C086B38F708F30C1F74F
:1001D0008AE08A95F1F700C086B38F708F3081F77F
:1001E0002FEE3FED4FEB9FE728BB86B38F708F302C
:1001F000E1F438BB86B38F708F30C9F448BB86B347
:100200008F708F30B1F498BB86B38F708F3061F3ED
:1002100023E030E08E3079F4F901EE0FFF1FE20F9A
:10022000F31FE05AFF4F8081089520E0F2CF21E0D4
:10023000F0CF22E0EECF8D3049F4F901EE0FFF1F31
:10024000E20FF31FE05AFF4F818108958B3049F48C
:10025000F901EE0FFF1FE20FF31FE05AFF4F8281FB
:1002600008952F5F3F4FD8CFCF93DF93CDB7DEB741
:10027000A8970FB6F894DEBF0FBECDBF87E689B949
:1002800010BC88E18AB986E080BDD69A0E94C10080
:1002900080EF87BB8FEF88BB0E948B0080E80E94B5
:1002A0007B008AEC90E00E946F0080EC0E947B0053
:1002B0008BED90E00E946F000E94D9000E94B10077
:1002C0003EE1C32E31E0D32E7E0121E1E20EF11C8E
:1002D000AA24A394B12C0E94D900082E000C990BDB
:1002E000C09720917C0330917D032230310509F4C1
:1002F00047C368F421153105C1F02130310559F7A4
:100300008130910509F47EC2029721F0E4CF2730B5
:10031000310508F710927D0310927C0310927B0345
:1003200010927A030E94B100D6CF20917A033091C7
:100330007B032130310509F4B4C050F1223031057E
:1003400051F68630910509F423C28730910509F4EE
:10035000A1C08530910509F0BECF90937D038093B5
:100360007C03809178039091790310E0892B09F048
:10037000F9C10E948B0080E80E947B0080E691E03A
:100380000E946F0080EC0E947B008CE691E0C4C06C
:100390008230910579F08930910509F47BC0813074
:1003A000910509F098CF90937D0380937C030E9480
:1003B000910091CF90937D0380937C030E948B00EA
:1003C00080E80E947B008CEE90E00E946F0080EC41
:1003D0000E947B00412C512C32010E94D900E82F51
:1003E0008F3619F52091780330917903E8EEF1E02A
:1003F00090E080E08217930794F10E948B0080E8E0
:100400000E947B008BE091E00E946F0080EC0E94D4
:100410007B0083E191E00E946F009FEFA3EDB0E3CA
:100420009150A040B040E1F730C0AAE0B0E0A30195
:1004300092010E943B074E2F0E2E000C550B40538D
:1004400051098A01550F220B330B28013901460E41
:10045000571E681E791E8E2F0E945F00BECF4191ED
:10046000519161917191441655066606770681F4A3
:100470000E948B008CEF90E00E946F003FEF43EDF5
:1004800080E3315040408040E1F700C0000042CF9F
:100490000196B0CFB0927B03A0927A030E94A10094
:1004A0001ACF8430910509F494C0CCF583309105BE
:1004B00009F011CF90937D0380937C030E948B0001
:1004C000809179038F93809178038F93DF92CF92FD
:1004D000FF92EF920E94550780E80E947B00C701BF
:1004E0000E946F00EFEFF1EE24E0E150F040204079
:1004F000E1F700C000000F900F900F900F900F9049
:100500000F908091780390917903892B21F580ECED
:100510000E947B008BE291E00E946F00DCCE87306E
:10052000910509F4FBCE099709F0D5CE82E090E061
:1005300090937B0380937A030E948B0080E80E9453
:100540007B0080E491E00E946F0080EC0E947B00C1
:100550008FE491E0E1CFBE016F5D7F4F90E080E0DE
:100560000E94490080EC0E947B00CE0181960E948F
:100570006F0010E000E00E94D9008933E9F4C8015F
:1005800001962091780330917903821793070CF438
:100590008C01BE016F5F7F4FC80123E0880F991F58
:1005A0002A95E1F70E94490080EC0E947B00CE0171
:1005B00001960E946F00DFCF873341F410161106B9
:1005C00014F001E010E001501109E3CF8F3609F774
:1005D00082CE90937D0380937C033FEF41EE84E0D5
:1005E000315040408040E1F700C00000D19AD998D6
:1005F0009FEFA1EEB4E09150A040B040E1F700C001
:1006000000000E94C100EFEFF1EE24E0E150F04065
:100610002040E1F700C000001ABA87E886B980E4FC
:1006200087B93FEF41EE84E0315040408040E1F730
:1006300000C00000F0E4BF2EAFEDCA2EB8E3EB2EF1
:10064000B1E0FB2E8E010F5F1F4F8AE0D82E8BB3D7
:100650008D6F8BBB9FEFA3ECB9E09150A040B040F1
:10066000E1F700C000008BB382708BBBEFEFF1EEBF
:1006700024E0E150F0402040E1F700C000003FEFEF
:1006800043ED80E3315040408040E1F700C000007E
:1006900080E80E947B0080EA90E00E946F00B7B87B
:1006A000369A349BFECF349AAFE9BFE01197F1F749
:1006B00000C0000064B175B1072E000C880B990BC7
:1006C0000E94420626EF38E24CE950E40E94CE0632
:1006D0001F92CF9220E030E040E251E40E94980562
:1006E0000E940A067F936F93FF92EF921F930F93DE
:1006F0000E94550780EC0E947B00C8010E946F0099
:10070000BFEFE3EDF0E3B150E040F040E1F700C0AF
:100710000000D801ED2D1D92EA95E9F70FB6F89487
:10072000DEBF0FBECDBF93CFBE016F5F7F4FE3E053
:10073000880F991FEA95E1F70E94490080E0E1E007
:10074000F0E0EC0FFD1FE80FF11D908191111BC02F
:100750009FEFA9E6B8E19150A040B040E1F700C09A
:1007600000001F5F812F90E0209178033091790382
:1007700082179307CCF20E948B0080E80E947B00D6
:1007800089E791E0C9CE5D9BFECF9CB98F5FD7CF43
:1007900090937D0380937C0380E80E947B008FE729
:1007A00091E00E946F00DD24DA9452E0C52E0DE93D
:1007B00011E0FE0131967F01FFEF21EE34E0F150B0
:1007C00020403040E1F700C00000DE9A40E54A9545
:1007D000F1F7DE9880EC97E2A9E0B0E0CF99D5C0C0
:1007E0000197A109B109D1F70E948B0084ED91E036
:1007F0000E946F003FEF45EA8EE03150404080405C
:10080000E1F7E3C00E948B0080E80E947B0087EA4A
:1008100091E00E946F0080EC0E947B008E010F5FD0
:100820001F4F4801312C412C512C32010E94D9001C
:10083000E82F8F36F1F0AAE0B0E0A30192010E9408
:100840003B072E2F0E2E000C330B205331092901AC
:10085000330F66087708460E571E681E791E3394BC
:10086000D401ED934D018E2F0E945F00B9E03B1241
:10087000DDCFF801E30DF11D1082EFEFF3EC29E07D
:10088000E150F0402040E1F700C00000D301C20178
:10089000815A904EA346B2408F399648A140B10587
:1008A00078F10E948B0080E80E947B0087EB91E04A
:1008B0000E946F008BB38D6F8BBB4FEF83EC99E081
:1008C000415080409040E1F700C000008BB382703F
:1008D0008BBBAFEFB1EEE4E0A150B040E040E1F7F8
:1008E00000C00000FFEF23ED30E3F1502040304026
:1008F000E1F700C00000B0927D03A0927C0357CDC9
:10090000809178039091790333E0880F991F3A958D
:10091000E1F7D8012D918D01222321F08115B4E05A
:100920009B0728F18091780390917903FC01EE0FE9
:10093000FF1FEE0FFF1FE851FE4F4082518262827F
:100940007382019690937903809378030E948B00C1
:1009500080E80E947B0085EC91E00E946F00EFEF41
:10096000F3ED20E3E150F0402040E1F7C2CFE19900
:10097000FECF9FBB8EBB2DBBE29AE19A0196C9CFF9
:1009800010927D0310927C03A6CC1FBCCEBC1DBC74
:100990001CBC80EC97E2A9E0B0E0CF9B19C02CB55D
:1009A0003DB521363A4EA0F40197A109B109A9F746
:1009B0000E948B0088E891E00E946F00FFEF25EA1B
:1009C0003EE0F15020403040E1F700C00000F4CE9E
:1009D0008CB59DB5B0E0A0E01EBC8136EAEE9E0766
:1009E000A105B10528F7BC01CD01969587957795AE
:1009F00067950E94400626E933E44BE05DE30E94E0
:100A0000CE0620E030E040E05FE30E94CE0620E02A
:100A100030E040E05FE30E942C050E940A06663049
:100A200071050CF0C9CED3941F92DF921F930F93E0
:100A3000FF92EF920E9455070E948B0080E80E946F
:100A40007B00C7010E946F000F900F900F900F90D6
:100A50000F900F90B1CE5058BB27AA270E94430594
:100A60000C9494060E94860638F00E948D0620F0B1
:100A700039F49F3F19F426F40C9483060EF4E095A4
:100A8000E7FB0C947D06E92F0E94A50658F3BA17E0
:100A9000620773078407950720F079F4A6F50C9494
:100AA000C7060EF4E0950B2EBA2FA02D0B01B9014D
:100AB00090010C01CA01A0011124FF27591B99F0D4
:100AC000593F50F4503E68F11A16F040A22F232FE0
:100AD000342F4427585FF3CF469537952795A79530
:100AE000F0405395C9F77EF41F16BA0B620B730BD7
:100AF000840BBAF09150A1F0FF0FBB1F661F771F48
:100B0000881FC2F70EC0BA0F621F731F841F48F4FC
:100B1000879577956795B795F7959E3F08F0B0CF85
:100B20009395880F08F09927EE0F9795879508956C
:100B30000E94AC050C9494060E948D0658F00E9409
:100B4000860640F029F45F3F29F00C947D06511190
:100B50000C94C8060C9483060E94A50668F399239A
:100B6000B1F3552391F3951B550BBB27AA276217A9
:100B70007307840738F09F5F5F4F220F331F441FB6
:100B8000AA1FA9F335D00E2E3AF0E0E832D09150EA
:100B90005040E695001CCAF72BD0FE2F29D0660FD7
:100BA000771F881FBB1F261737074807AB07B0E81A
:100BB00009F0BB0B802DBF01FF2793585F4F3AF020
:100BC0009E3F510578F00C947D060C94C8065F3F5B
:100BD000E4F3983ED4F3869577956795B795F795A6
:100BE0009F5FC9F7880F911D9695879597F908958E
:100BF000E1E0660F771F881FBB1F6217730784072A
:100C0000BA0720F0621B730B840BBA0BEE1F88F738
:100C1000E09508950E9411066894B1110C94C806DD
:100C200008950E94AD0688F09F5798F0B92F992734
:100C3000B751B0F0E1F0660F771F881F991F1AF0C7
:100C4000BA95C9F714C0B13091F00E94C706B1E05F
:100C500008950C94C706672F782F8827B85F39F05E
:100C6000B93FCCF3869577956795B395D9F73EF460
:100C700090958095709561957F4F8F4F9F4F089508
:100C8000E89409C097FB3EF4909580957095619526
:100C90007F4F8F4F9F4F9923A9F0F92F96E9BB27DC
:100CA0009395F695879577956795B795F111F8CF58
:100CB000FAF4BB0F11F460FF1BC06F5F7F4F8F4FC3
:100CC0009F4F16C0882311F096E911C0772321F0B9
:100CD0009EE8872F762F05C0662371F096E8862F51
:100CE00070E060E02AF09A95660F771F881FDAF7A8
:100CF000880F9695879597F9089597F99F6780E8EB
:100D000070E060E008959FEF80EC089500240A945D
:100D10001616170618060906089500240A941216D6
:100D20001306140605060895092E0394000C11F409
:100D3000882352F0BB0F40F4BF2B11F460FF04C0B6
:100D40006F5F7F4F8F4F9F4F089557FD9058440F0F
:100D5000551F59F05F3F71F04795880F97FB991F1A
:100D600061F09F3F79F087950895121613061406D7
:100D7000551FF2CF4695F1DF08C016161706180664
:100D8000991FF1CF86957105610508940895E8943F
:100D9000BB2766277727CB0197F908950E94E106C4
:100DA0000C9494060E94860638F00E948D0620F06E
:100DB000952311F00C947D060C94830611240C9459
:100DC000C8060E94A50670F3959FC1F3950F50E0E9
:100DD000551F629FF001729FBB27F00DB11D639FED
:100DE000AA27F00DB11DAA1F649F6627B00DA11D93
:100DF000661F829F2227B00DA11D621F739FB00D39
:100E0000A11D621F839FA00D611D221F749F3327A8
:100E1000A00D611D231F849F600D211D822F762F41
:100E20006A2F11249F5750409AF0F1F088234AF01E
:100E3000EE0FFF1FBB1F661F771F881F915050408A
:100E4000A9F79E3F510580F00C947D060C94C806CE
:100E50005F3FE4F3983ED4F3869577956795B79511
:100E6000F795E7959F5FC1F7FE2B880F911D96952B
:100E7000879597F908950E944607A59F900DB49F06
:100E8000900DA49F800D911D11240895A29FB00183
:100E9000B39FC001A39F700D811D1124911DB29FAE
:100EA000700D811D1124911D0895AEE0B0E0EBE5B9
:100EB000F7E00C94040A0D891E8986E08C831A835E
:100EC00009838FEF9FE79E838D83AE01475E5F4F5F
:100ED0006F89788DCE0101960E9478072F81388521
:100EE000020F131FF80110822E96E4E00C94200AE2
:100EF000ABE0B0E0EEE7F7E00C94F6097C013B01D3
:100F00008A01FC0117821682838181FFC8C1CE014C
:100F100001965C01F7019381F30193FD859193FFA5
:100F200081913F01882309F453C1853239F493FD3F
:100F3000859193FF81913F01853229F4B70190E0BB
:100F40000E946809E7CF912C212C312CFFE1F31589
:100F500038F08B3211F190F4803209F1833229F1AB
:100F600037FC3CC020ED280F2A3050F536FE20C05B
:100F70008AE0989E200D1124922E06C08D3291F0A9
:100F8000803371F7689430F8F30193FD859193FFF6
:100F900081913F018111DACF21C0689431F86894C2
:100FA00032F8F2CF689433F8EFCF689434F8ECCF8E
:100FB000EAE02E9E200D1124222E689435F8E4CF0D
:100FC0008E3229F436FC04C1689436F8DDCF8C36B5
:100FD00019F4689437F8D8CF8836B1F2982F9F7DEE
:100FE00095549330E0F08336A1F18337C1F1833516
:100FF00009F063C02801F2E04F0E511CF801C080D7
:10100000D180692D70E036FC02C06FEF7FEFC60122
:101010000E9452094C01689437F882010AC00C5FA3
:101020001F4FFFE3F98388248394912C6501E89492
:1010300037F833FE2DC0522C8114910471F55520E0
:1010400009F468CFB70180E290E00E9468095A94E1
:10105000F6CFF801808189830E5F1F4FE4CF28010E
:10106000F2E04F0E511CF801C080D180692D70E074
:1010700036FC02C06FEF7FEFC6010E945D094C0194
:101080008201D5CFB70180E290E00E9468092A94DE
:101090002814190409F0B0F7CECFF60137FC85917A
:1010A00037FE81916F01B70190E00E9468095110ED
:1010B0005A94F1E08F1A9108BFCF843619F089361F
:1010C00009F077C0F80137FE6BC0608171818281C1
:1010D00093810C5F1F4FF32DFF763F2E97FF09C0C2
:1010E00090958095709561957F4F8F4F9F4F689435
:1010F00037F82AE030E0A5010E949809C82ECA18E6
:101100008C2C432C36FE0CC0E89440F8C91440F4F3
:1011100034FE05C032FC03C0F32DFE7E4F2E892C19
:1011200044FE95C0FE01EC0DF11D8081803309F075
:1011300087C0242D297E422E842D8870582E43FC92
:1011400095C040FE8FC09C2C821418F42C0C922C5D
:10115000981844FE91C0B70180E390E00E946809AE
:1011600042FE09C088E790E041FE02C088E590E0B9
:10117000B7010E946809C91408F48AC0CA94D12C26
:101180009FEFC91AD90ACA0CDB1CF60182916F01C4
:10119000B70190E00E946809AC14BD04B1F74FCFCD
:1011A00060817181072E000C880B990B0E5F1F4F19
:1011B00092CFD32CE894D4F82AE030E0853739F187
:1011C000232D297FD22E8F3601F148F48835A9F0DE
:1011D000F701868197812B96E2E10C94120A803701
:1011E00049F08837A9F7D4FE02C06894D2F820E10C
:1011F00030E00DC06894D4F8F6CF34FE03C0822FDF
:101200008660D82E20E132E002C028E030E0F8010C
:10121000D7FE0FC060817181828193810C5F1F4F67
:10122000A5010E949809C82ECA183D2CE89437F8E9
:1012300067CF6081718190E080E00E5F1F4FF0CF3B
:1012400042FC02C0839478CF8394839475CF842D1D
:10125000867809F471CFF6CFB70180E290E00E9462
:10126000680983948214C0F3512C73CF522C581800
:10127000821408F46ECFF8CF842D867809F47BCFE2
:101280008BE241FE80E247FC8DE2B70190E071CF36
:10129000B70180E390E00E9468099A946CCF8FEFC9
:1012A0009FEF99CFFC010590615070400110D8F775
:1012B000809590958E0F9F1F0895FC01615070409E
:1012C00001900110D8F7809590958E0F9F1F08957B
:1012D0000F931F93CF93DF93182F092FEB018B816F
:1012E00081FD09C01FEF0FEF812F902FDF91CF916C
:1012F0001F910F91089582FF14C02E813F818C8130
:101300009D81281739073CF4E881F981CF010196C6
:101310009983888310838E819F8101969F838E831A
:10132000E3CFE885F985812F0995892BA1F3DACFE1
:10133000FA01AA27283051F1203181F1E8946F9306
:101340006E7F6E5F7F4F8F4F9F4FAF4FB1E03ED0AC
:10135000B4E03CD0670F781F891F9A1FA11D680F4A
:10136000791F8A1F911DA11D6A0F711D811D911D7D
:10137000A11D20D009F468943F912AE0269F1124F2
:101380003019305D3193DEF6CF010895462F477056
:10139000405D4193B3E00FD0C9F7F6CF462F4F70B1
:1013A000405D4A3318F0495D31FD4052419302D00F
:1013B000A9F7EACFB4E0A6959795879577956795B5
:1013C000BA95C9F700976105710508959B01AC01B5
:1013D0000A2E06945795479537952795BA95C9F7DC
:1013E000620F731F841F951FA01D08952F923F92B7
:1013F0004F925F926F927F928F929F92AF92BF9225
:10140000CF92DF92EF92FF920F931F93CF93DF93D0
:10141000CDB7DEB7CA1BDB0B0FB6F894DEBF0FBE2D
:10142000CDBF09942A88398848885F846E847D847A
:101430008C849B84AA84B984C884DF80EE80FD807C
:101440000C811B81AA81B981CE0FD11D0FB6F894F2
:0E145000DEBF0FBECDBFED010895F894FFCFB3
:10145E003738393435363132336F303D4174746537
:10146E006E64616E636520526561647900312E731E
:10147E0075626D69742020322E6578697400332E82
:10148E00566965772050726573656E747300342EDD
:10149E0054656D706572617475726500312E41749C
:1014AE0074656E6420696E697400322E737475648F
:1014BE00656E74206D676D6E7400373A3D42414320
:1014CE004B2020393A3D4E45585400707265737367
:1014DE0020616E79206B65792E2E2E005365617218
:1014EE0063682053747564656E743A005374756442
:1014FE00656E7420466F756E642100537475646555
:10150E006E74004E6F7420466F756E6421005072BB
:10151E006573656E74733A202564004E6F205374A4
:10152E007564656E74732E00256425634320200058
:10153E00352E73747564656E742064617461003643
:10154E002E547261666963206D6F6E69746F7200DE
:10155E004E6F2073747564656E747300746F2072B1
:10156E00657472696576652100446F6E652100436E
:10157E006F756E743A2030004E6F204F6273746137
:10158E00636C6520446574656374656400436F75B0
:10159E006E743A2025640053747564656E74204E23
:1015AE00756D6265723A004E6F74204163636570AB
:1015BE007465642100436F646520416363657074D4
:1015CE00656421004572726F723A204563686F2020
:0815DE0074696D656F757400FE
:00000001FF
