:100000000C942A000C9447000C9447000C94470071
:100010000C9447000C9447000C9447000C94470044
:100020000C9447000C9447000C9447000C94470034
:100030000C9447000C9447000C9447000C94470024
:100040000C9447000C9447000C9447000C94470014
:100050000C94470011241FBECFE5D8E0DEBFCDBF12
:1000600011E0A0E6B0E0EEE7F2E102C005900D92EB
:10007000A43CB107D9F723E0A4ECB1E001C01D9284
:10008000A036B207E1F70E9474010C943D090C946C
:10009000000085BB959A9698979A82E08A95F1F729
:1000A00000C097988FEC97E00197F1F700C000002F
:1000B0000895CF93DF93EC018991811103C0DF9103
:1000C000CF9108950E944900F7CFEF92FF920F93CE
:1000D0001F93CF93DF93CDB7DEB72A970FB6F8946F
:1000E000DEBF0FBECDBF8E010F5F1F4F009731F5F2
:1000F00080E3898321E030E0F801E20FF31F1082F2
:10010000BF01D801A801409550959A01260F371FCD
:10011000CD01801B910B821793070CF1C8010E943F
:1001200059002A960FB6F894DEBF0FBECDBFDF91FF
:10013000CF911F910F91FF90EF900895F80130E05B
:1001400020E04AE0E42EF12C2F5F3F4FB7010E94E0
:100150000606805D8193CB010097B1F7CDCF8D91DD
:10016000FB019291BF019D0121503109F90190835A
:10017000FB018083CACF85BB95989698979A82E0B9
:100180008A95F1F700C097988FE697E10197F1F70C
:1001900000C00000089581E00E94BB0080E80C943C
:1001A000BB000E94CB0080E80E94BB008CE690E080
:1001B0000E94590080EC0E94BB008DE790E00C94F7
:1001C00059000E94CB0080E80E94BB008EE890E0BE
:1001D0000E94590080EC0E94BB008EE990E00C94D4
:1001E00059000E94CB0080E80E94BB008CEA90E09E
:1001F0000E94590080EC0E94BB008AEB90E00C94B6
:1002000059008FEF81BB84BB8FE39CE90197F1F725
:1002100000C0000088E30E94BB008CE00E94BB008D
:1002200086E00E94BB0081E00E94BB0080E80C9445
:10023000BB0088B38F7088BB86B38F708F30C9F7CF
:100240008AE08A95F1F700C086B38F708F30C1F7CE
:100250008AE08A95F1F700C086B38F708F3081F7FE
:100260002FEE3FED4FEB9FE728BB86B38F708F30AB
:10027000E1F438BB86B38F708F30C9F448BB86B3C6
:100280008F708F30B1F498BB86B38F708F3061F36D
:1002900023E030E08E3079F4F901EE0FFF1FE20F1A
:1002A000F31FE05AFF4F8081089520E0F2CF21E054
:1002B000F0CF22E0EECF8D3049F4F901EE0FFF1FB1
:1002C000E20FF31FE05AFF4F818108958B3049F40C
:1002D000F901EE0FFF1FE20FF31FE05AFF4F82817B
:1002E00008952F5F3F4FD8CFCF93DF93CDB7DEB7C1
:1002F0002A970FB6F894DEBF0FBECDBF87E689B947
:1003000010BC88E18AB986E080BD0E94010180EFBF
:1003100087BB8FEF88BB0E94CB0080E80E94BB00A8
:100320008AEC90E00E94590080EC0E94BB008BEDAB
:1003300090E00E9459000E9419010E94F100EE24F1
:10034000E394F12C22E0C22ED12C0E941901082E38
:10035000000C990BC097E0915803F0915903E730D6
:10036000F10598F7EA54FE4F0C941A06BD01CF032D
:100370005B045204520457046004209156033091E8
:1003800057032130310509F4A4C090F02230310523
:10039000E1F68630910539F08730910509F492C075
:1003A0008530910591F69093590380935803CDCFF2
:1003B0008230910579F08930910509F483C081304C
:1003C000910509F0C2CF90935903809358030E947E
:1003D000D100BBCF90935903809358030E94CB0068
:1003E00080E80E94BB008CEE90E00E94590080ECF7
:1003F0000E94BB00812C912C54010E941901E82F0E
:100400008F3619F52091540330915503E4ECF1E057
:1004100090E080E08217930784F10E94CB0080E88F
:100420000E94BB008BE091E00E94590080EC0E948A
:10043000BB0083E191E00E945900EFEFF3ED20E370
:10044000E150F0402040E1F72EC0AAE0B0E0A50165
:1004500094010E9420062E2F0E2E000C330B2053E9
:1004600031094901330FAA08BB08860E971EA81E42
:10047000B91E8E2F0E944900C0CF419151916191C8
:10048000719184169506A606B706D1F40E94CB009A
:100490008CEF90E00E9459002FEF83ED90E3215004
:1004A00080409040E1F700C0000010925903109284
:1004B000580310925703109256030E94F10045CF43
:1004C0000196A8CFF0925703E09256030E94E100F4
:1004D0003CCF8430910509F4B7C00CF044C08330A0
:1004E000910509F032CF90935903809358030E94ED
:1004F000CB0080E80E94BB008EE191E00E94590091
:1005000080915403909155030E9465008FEF91EE06
:10051000E4E081509040E040E1F700C000000E941C
:10052000CB0080E80E94BB008091C4019091C5017E
:100530000E94650080EC0E94BB008091C8019091F0
:10054000C9010E94650010E000E080915403909181
:100550005503892B11F580EC0E94BB008FE291E0DE
:100560000E945900F2CE8730910509F4A2CF099775
:1005700009F0EBCED0925703C09256030E94CB00F5
:1005800080E80E94BB0084E491E00E94590080EC66
:100590000E94BB0083E591E0E3CF0E941901803304
:1005A00099F50F5F1F4F80915403909155030817E1
:1005B0001907BCF50E94CB005801AA0CBB1C809106
:1005C0005403909155038A159B0574F180E80E94AD
:1005D000BB00F801A3E0EE0FFF1FAA95E1F7EC5373
:1005E000FE4F808191810E94650080EC0E94BB00DB
:1005F000F501EE0FFF1FEE0FFF1FE853FE4F808146
:1006000091810E946500A1CF883341F41016110634
:1006100014F001E010E001501109CCCF8F3651F6F3
:1006200094CE10E000E0C6CF80FF8FCF80E80E941C
:10063000BB00E0915403F0915503EE0FFF1FEE0F46
:10064000FF1FE054FE4FDBCF909359038093580374
:10065000FFEF21EE84E0F15020408040E1F700C040
:100660000000D19AD9989FEFE1EEF4E09150E0407C
:10067000F040E1F700C000000E9401012FEF81EE81
:1006800094E0215080409040E1F700C000001ABA89
:1006900087E886B980E487B9EFEFF1EE24E0E15016
:1006A000F0402040E1F700C0000030E4B32E4FEDF1
:1006B000C42E5CE3E52E51E0F52E8E010F5F1F4F37
:1006C0006AE0D62E8BB38D6F8BBB8FEF93ECE9E096
:1006D00081509040E040E1F700C000008BB3827091
:1006E0008BBBFFEF21EE84E0F15020408040E1F72A
:1006F00000C000009FEFE3EDF0E39150E040F040D8
:10070000E1F700C0000080E80E94BB0080EA90E0B2
:100710000E945900B7B8369A349BFECF349A8FE9BD
:100720009FE00197F1F700C0000064B175B1072E9A
:10073000000C880B990B0E940D0526EF38E24CE95E
:1007400050E40E9499051F92CF9220E030E040E2F1
:1007500051E40E9463040E94D5047F936F93FF923B
:10076000EF921F930F930E94650680EC0E94BB00DE
:10077000C8010E9459009FEFE3EDF0E39150E04083
:10078000F040E1F700C00000F8012D2D11922A95EC
:10079000E9F70FB6F894DEBF0FBECDBF93CF81301F
:1007A000910521F0029709F480CECFCD0E94CB00B5
:1007B00080E80E94BB0084E691E00E94590080EC32
:1007C0000E94BB00812C912C54010E941901E82F3A
:1007D0008F36C1F0AAE0B0E0A50194010E94200686
:1007E0002E2F0E2E000C330B205331094901330FED
:1007F000AA08BB08860E971EA81EB91E8E2F0E943F
:100800004900E3CF9FEFE3ECF9E09150E040F04086
:10081000E1F700C00000D501C401815A904EA34603
:10082000B2408F399648A140B105B8F00E94CB0084
:1008300080E80E94BB0084E791E00E9459008FEF9E
:1008400093EDE0E381509040E040E1F700C000000C
:10085000F0925903E0925803BACD809154039091DD
:100860005503FC01EE0FFF1FEE0FFF1FEC53FE4F71
:1008700080829182A282B3820196909355038093E5
:1008800054030E94CB0080E80E94BB0082E891E004
:100890000E945900FFEF23ED80E3F150204080409B
:1008A000E1F7D4CF109259031092580306CE81E994
:1008B00091E00E943A06109259031092580345CDD8
:1008C0008DEA91E0F6CF0E9477040C945F050E94B8
:1008D000580558F00E94510540F029F45F3F29F077
:1008E0000C94480551110C9493050C944E050E94EC
:1008F000700568F39923B1F3552391F3951B550BBC
:10090000BB27AA2762177307840738F09F5F5F4FE2
:10091000220F331F441FAA1FA9F335D00E2E3AF021
:10092000E0E832D091505040E695001CCAF72BD039
:10093000FE2F29D0660F771F881FBB1F261737078A
:100940004807AB07B0E809F0BB0B802DBF01FF27BC
:1009500093585F4F3AF09E3F510578F00C9448054C
:100960000C9493055F3FE4F3983ED4F38695779516
:100970006795B795F7959F5FC9F7880F911D969575
:10098000879597F90895E1E0660F771F881FBB1FD1
:10099000621773078407BA0720F0621B730B840B7E
:1009A000BA0BEE1F88F7E09508950E94DC04689466
:1009B000B1110C94930508950E94780588F09F5713
:1009C00098F0B92F9927B751B0F0E1F0660F771F73
:1009D000881F991F1AF0BA95C9F714C0B13091F069
:1009E0000E949205B1E008950C949205672F782F2C
:1009F0008827B85F39F0B93FCCF38695779567952E
:100A0000B395D9F73EF490958095709561957F4F99
:100A10008F4F9F4F0895E89409C097FB3EF490953F
:100A20008095709561957F4F8F4F9F4F9923A9F0C7
:100A3000F92F96E9BB279395F69587957795679556
:100A4000B795F111F8CFFAF4BB0F11F460FF1BC09A
:100A50006F5F7F4F8F4F9F4F16C0882311F096E92D
:100A600011C0772321F09EE8872F762F05C06623DB
:100A700071F096E8862F70E060E02AF09A95660F94
:100A8000771F881FDAF7880F9695879597F908954D
:100A900097F99F6780E870E060E008959FEF80EC31
:100AA000089500240A9416161706180609060895D4
:100AB00000240A9412161306140605060895092E3A
:100AC0000394000C11F4882352F0BB0F40F4BF2BA9
:100AD00011F460FF04C06F5F7F4F8F4F9F4F0895E9
:100AE00057FD9058440F551F59F05F3F71F04795DF
:100AF000880F97FB991F61F09F3F79F087950895C4
:100B0000121613061406551FF2CF4695F1DF08C0E2
:100B1000161617061806991FF1CF869571056105FF
:100B200008940895E894BB2766277727CB0197F9A7
:100B300008950E94AC050C945F050E94510538F0A1
:100B40000E94580520F0952311F00C9448050C9450
:100B50004E0511240C9493050E94700570F3959F27
:100B6000C1F3950F50E0551F629FF001729FBB27A4
:100B7000F00DB11D639FAA27F00DB11DAA1F649F40
:100B80006627B00DA11D661F829F2227B00DA11DF3
:100B9000621F739FB00DA11D621F839FA00D611D79
:100BA000221F749F3327A00D611D231F849F600D9A
:100BB000211D822F762F6A2F11249F5750409AF0C3
:100BC000F1F088234AF0EE0FFF1FBB1F661F771F4F
:100BD000881F91505040A9F79E3F510580F00C941A
:100BE00048050C9493055F3FE4F3983ED4F3869553
:100BF00077956795B795F795E7959F5FC1F7FE2BBA
:100C0000880F911D9695879597F90895AA1BBB1B90
:100C100051E107C0AA1FBB1FA617B70710F0A61BFC
:100C2000B70B881F991F5A95A9F780959095BC011D
:100C3000CD010895EE0FFF1F0590F491E02D09946A
:100C40000E942B06A59F900DB49F900DA49F800D30
:100C5000911D11240895A29FB001B39FC001A39FCD
:100C6000700D811D1124911DB29F700D811D1124E5
:100C7000911D08950F931F93CF93DF93E0915C0331
:100C8000F0915D032381EC0110E000E021FD08C03C
:100C90000FEF1FEF14C00995892B11F00FEF1FEF15
:100CA000899160915C0370915D03DB011896ED9171
:100CB000FC918111F0CF8AE00995892B49F7C80191
:100CC000DF91CF911F910F910895AEE0B0E0EBE678
:100CD000F6E00C9414090D891E8986E08C831A8332
:100CE00009838FEF9FE79E838D83AE01475E5F4F41
:100CF0006F89788DCE0101960E9488062F813885F4
:100D0000020F131FF80110822E96E4E00C943009B4
:100D1000ABE0B0E0EEE8F6E00C9406097C013B01A4
:100D20008A01FC0117821682838181FFC8C1CE012E
:100D300001965C01F7019381F30193FD859193FF87
:100D400081913F01882309F453C1853239F493FD21
:100D5000859193FF81913F01853229F4B70190E09D
:100D60000E947808E7CF912C212C312CFFE1F3155C
:100D700038F08B3211F190F4803209F1833229F18D
:100D800037FC3CC020ED280F2A3050F536FE20C03D
:100D90008AE0989E200D1124922E06C08D3291F08B
:100DA000803371F7689430F8F30193FD859193FFD8
:100DB00081913F018111DACF21C0689431F86894A4
:100DC00032F8F2CF689433F8EFCF689434F8ECCF70
:100DD000EAE02E9E200D1124222E689435F8E4CFEF
:100DE0008E3229F436FC04C1689436F8DDCF8C3697
:100DF00019F4689437F8D8CF8836B1F2982F9F7DD0
:100E000095549330E0F08336A1F18337C1F18335F7
:100E100009F063C02801F2E04F0E511CF801C080B8
:100E2000D180692D70E036FC02C06FEF7FEFC60104
:100E30000E9462084C01689437F882010AC00C5F76
:100E40001F4FFFE3F98388248394912C6501E89474
:100E500037F833FE2DC0522C8114910471F55520C2
:100E600009F468CFB70180E290E00E9478085A94B4
:100E7000F6CFF801808189830E5F1F4FE4CF2801F0
:100E8000F2E04F0E511CF801C080D180692D70E056
:100E900036FC02C06FEF7FEFC6010E946D084C0167
:100EA0008201D5CFB70180E290E00E9478082A94B1
:100EB0002814190409F0B0F7CECFF60137FC85915C
:100EC00037FE81916F01B70190E00E9478085110C0
:100ED0005A94F1E08F1A9108BFCF843619F0893601
:100EE00009F077C0F80137FE6BC0608171818281A3
:100EF00093810C5F1F4FF32DFF763F2E97FF09C0A4
:100F000090958095709561957F4F8F4F9F4F689416
:100F100037F82AE030E0A5010E94A808C82ECA18B8
:100F20008C2C432C36FE0CC0E89440F8C91440F4D5
:100F300034FE05C032FC03C0F32DFE7E4F2E892CFB
:100F400044FE95C0FE01EC0DF11D8081803309F057
:100F500087C0242D297E422E842D8870582E43FC74
:100F600095C040FE8FC09C2C821418F42C0C922C3F
:100F7000981844FE91C0B70180E390E00E94780881
:100F800042FE09C088E790E041FE02C088E590E09B
:100F9000B7010E947808C91408F48AC0CA94D12CF9
:100FA0009FEFC91AD90ACA0CDB1CF60182916F01A6
:100FB000B70190E00E947808AC14BD04B1F74FCFA0
:100FC00060817181072E000C880B990B0E5F1F4FFB
:100FD00092CFD32CE894D4F82AE030E0853739F169
:100FE000232D297FD22E8F3601F148F48835A9F0C0
:100FF000F701868197812B96E2E10C9422098037D4
:1010000049F08837A9F7D4FE02C06894D2F820E1ED
:1010100030E00DC06894D4F8F6CF34FE03C0822FC0
:101020008660D82E20E132E002C028E030E0F801EE
:10103000D7FE0FC060817181828193810C5F1F4F49
:10104000A5010E94A808C82ECA183D2CE89437F8BC
:1010500067CF6081718190E080E00E5F1F4FF0CF1D
:1010600042FC02C0839478CF8394839475CF842DFF
:10107000867809F471CFF6CFB70180E290E00E9444
:10108000780883948214C0F3512C73CF522C5818D3
:10109000821408F46ECFF8CF842D867809F47BCFC4
:1010A0008BE241FE80E247FC8DE2B70190E071CF18
:1010B000B70180E390E00E9478089A946CCF8FEF9C
:1010C0009FEF99CFFC010590615070400110D8F757
:1010D000809590958E0F9F1F0895FC016150704080
:1010E00001900110D8F7809590958E0F9F1F08955D
:1010F0000F931F93CF93DF93182F092FEB018B8151
:1011000081FD09C01FEF0FEF812F902FDF91CF914D
:101110001F910F91089582FF14C02E813F818C8111
:101120009D81281739073CF4E881F981CF010196A8
:101130009983888310838E819F8101969F838E83FC
:10114000E3CFE885F985812F0995892BA1F3DACFC3
:10115000FA01AA27283051F1203181F1E8946F93E8
:101160006E7F6E5F7F4F8F4F9F4FAF4FB1E03ED08E
:10117000B4E03CD0670F781F891F9A1FA11D680F2C
:10118000791F8A1F911DA11D6A0F711D811D911D5F
:10119000A11D20D009F468943F912AE0269F1124D4
:1011A0003019305D3193DEF6CF010895462F477038
:1011B000405D4193B3E00FD0C9F7F6CF462F4F7093
:1011C000405D4A3318F0495D31FD4052419302D0F1
:1011D000A9F7EACFB4E0A695979587957795679597
:1011E000BA95C9F700976105710508959B01AC0197
:1011F0000A2E06945795479537952795BA95C9F7BE
:10120000620F731F841F951FA01D08952F923F9298
:101210004F925F926F927F928F929F92AF92BF9206
:10122000CF92DF92EF92FF920F931F93CF93DF93B2
:10123000CDB7DEB7CA1BDB0B0FB6F894DEBF0FBE0F
:10124000CDBF09942A88398848885F846E847D845C
:101250008C849B84AA84B984C884DF80EE80FD805E
:101260000C811B81AA81B981CE0FD11D0FB6F894D4
:0E127000DEBF0FBECDBFED010895F894FFCF95
:10127E003738393435363132336F303D4174746519
:10128E006E64616E636520526561647900312E7300
:10129E0075626D69742020322E6578697400332E64
:1012AE00566965772050726573656E747300342EBF
:1012BE0054656D706572617475726500312E41747E
:1012CE0074656E6420696E697400322E7374756471
:1012DE00656E74206D676D6E7400373A3D42414302
:1012EE004B2020393A3D4E45585400707265737349
:1012FE0020616E79206B65792E2E2E0053656172FA
:10130E0063682053747564656E743A005374756423
:10131E00656E7420466F756E642100537475646536
:10132E006E74004E6F7420466F756E64210050729D
:10133E006573656E742053747564656E7473004EB8
:10134E006F2053747564656E74732E002564256367
:10135E0043202000352E73747564656E74206461AD
:10136E00746100362E547261666963206D6F6E690A
:10137E00746F720053747564656E74204E756D6271
:10138E0065723A004E6F74204163636570746564D4
:10139E002100436F64652041636365707465642149
:1013AE000052657472696576696E6E672053747546
:1013BE0064656E7420446174612E2E2E004D6F6E26
:1013CE0069746F72696E6720547261666669632E06
:0413DE002E2E0000AF
:00000001FF
