:100000000C942A000C9447000C9447000C94470071
:100010000C9447000C9447000C9447000C94470044
:100020000C9447000C9447000C9447000C94470034
:100030000C9447000C9447000C9447000C94470024
:100040000C9447000C9447000C9447000C94470014
:100050000C94470011241FBECFE5D8E0DEBFCDBF12
:1000600011E0A0E6B0E0E0E3F8E002C005900D92F8
:10007000AE3BB107D9F723E0AEEBB1E001C01D9272
:10008000AC35B207E1F70E943C010C9416040C94C5
:10009000000085BB909A9198929A82E08A95F1F738
:1000A00000C092988FEC97E00197F1F700C0000034
:1000B0000895CF93DF93EC018991811103C0DF9103
:1000C000CF9108950E944900F7CFEF92FF920F93CE
:1000D0001F93CF93DF93CDB7DEB72A970FB6F8946F
:1000E000DEBF0FBECDBF8E010F5F1F4F009731F5F2
:1000F00080E3898321E030E0F801E20FF31F1082F2
:10010000BF01D801A801409550959A01260F371FCD
:10011000CD01801B910B821793070CF1C8010E943F
:1001200059002A960FB6F894DEBF0FBECDBFDF91FF
:10013000CF911F910F91FF90EF900895F80130E05B
:1001400020E04AE0E42EF12C2F5F3F4FB7010E94E0
:10015000B703805D8193CB010097B1F7CDCF8D912F
:10016000FB019291BF019D0121503109F90190835A
:10017000FB018083CACF85BB90989198929A82E0C8
:100180008A95F1F700C092988FE697E10197F1F711
:1001900000C00000089581E00E94BB0080E80C943C
:1001A000BB000E94CB0080E80E94BB008EE690E07E
:1001B0000E94590080EC0E94BB008CE790E00C94F8
:1001C000590088B38F7088BB86B38F708F30C9F7A2
:1001D0008AE08A95F1F700C086B38F708F30C1F73F
:1001E0008AE08A95F1F700C086B38F708F3081F76F
:1001F0002FEE3FED4FEB9FE728BB86B38F708F301C
:10020000E1F438BB86B38F708F30C9F448BB86B336
:100210008F708F30B1F498BB86B38F708F3061F3DD
:1002200023E030E08E3079F4F901EE0FFF1FE20F8A
:10023000F31FEE59FF4F8081089520E0F2CF21E0B7
:10024000F0CF22E0EECF8D3049F4F901EE0FFF1F21
:10025000E20FF31FEE59FF4F818108958B3049F46F
:10026000F901EE0FFF1FE20FF31FEE59FF4F8281DE
:1002700008952F5F3F4FD8CFCFEFC1BBC4BB8FE3F3
:100280009CE90197F1F700C0000088E30E94BB00E1
:100290008CE00E94BB0086E00E94BB0081E00E94CF
:1002A000BB0080E80E94BB0080EF87BBC8BB0E94F8
:1002B000D100C2E0D0E001E010E00E94E100082E91
:1002C000000C990BC0979093550380935403E091D1
:1002D0005203F0915303E730F10578F7EE58FE4FE3
:1002E0000C94CB0379018501BC021C03AC03B10360
:1002F000B40380915003909151038130910509F42A
:1003000042C040F1029709F46AC080916000909168
:100310006100009709F484C0029779F60E94CB002F
:1003200080E80E94BB0087EF90E00E94590080ECBB
:100330000E94BB0088E091E00E9459008091540324
:1003400090915503019709F0B8CF10926100109277
:100350006000B3CF0E94D100809154039091550367
:100360008230910531F08930910541F0813091055D
:1003700061F69093530380935203C7CF10935103B8
:1003800000935003C2CF0E94CB0080E80E94BB00C4
:100390008CE890E00E94590080EC0E94BB008CE940
:1003A00090E00E945900809154039091550384304D
:1003B0009105F9F224F483309105D9F2A6CF873064
:1003C000910541F0099709F0A0CFD0935103C09354
:1003D00050039BCF109251031092500396CF0E946E
:1003E000CB0080E80E94BB008AEA90E00E9459009E
:1003F00080EC0E94BB0089EB90E00E945900809144
:100400005403909155038630910509F4B2CF87309B
:10041000910509F4B3CF8530910509F076CFA9CFC6
:1004200080915403909155038130910509F095C056
:1004300090936100809360000E94CB0080E80E944E
:10044000BB0090E080E00E9459008AEC90E00E949E
:10045000590080EC0E94BB0090E080E00E945900AF
:10046000C12CD12C76010E94E100E82F8F36C1F01B
:10047000AAE0B0E0A70196010E94D1032E2F0E2E14
:10048000000C330B205331096901330FEE08FF08CC
:10049000C60ED71EE81EF91E8E2F0E944900E3CF1C
:1004A0009FEF23EC89E0915020408040E1F700C0AD
:1004B0000000D701C601815A904EA346B2408F3941
:1004C0009648A140B10558F10E94CB0080E80E94F7
:1004D000BB008AED90E00E9459008BB38D6F8BBBFF
:1004E0008FEF93EC29E0815090402040E1F700C06D
:1004F00000008BB382708BBB8FEF91EE24E08150B4
:1005000090402040E1F700C000008FEF93EC29E01D
:10051000815090402040E1F700C00000CECE809195
:100520004E0390914F03FC01EE0FFF1FEE0FFF1FD4
:10053000E254FE4FC082D182E282F3820196909310
:100540004F0380934E030E94CB0080E80E94BB00C3
:1005500088EE90E00E945900B0CE8230910509F0FB
:10056000ACCE10925303109252039093610080938B
:1005700060000E94D100A1CE0E94CB0089E191E0F1
:100580000E94590080EC0E94BB0090E080E00E9435
:1005900059008DE291E00E945900C12CD12C7601C6
:1005A0000E94E100E82F8F3681F420914E033091B4
:1005B0004F03EEEBF1E090E080E082179307ECF060
:1005C0000E94CB008DE491E025C0AAE0B0E0A70135
:1005D00096010E94D1034E2F0E2E000C550B405356
:1005E00051096A01550FEE08FF08C60ED71EE81E16
:1005F000F91E8E2F0E944900D3CF419151916191F4
:100600007191C416D506E606F706A1F40E94CB0048
:100610008EE391E00E9459008FEF91EE24E081502B
:1006200090402040E1F700C0000010925303109268
:10063000520343CE0196C1CF0E94CB0080E80E94B6
:10064000BB0090E080E00E94590080E691E00E94AB
:10065000590080914E0390914F030E9465008FEFE7
:1006600091EE24E0815090402040E1F700C000006E
:100670000E94CB0080E80E94BB0090E080E00E94D6
:1006800059008091BE019091BF010E94650080ECED
:100690000E94BB0090E080E00E9459008091C2015E
:1006A0009091C3010E946500F12CE12C0E94E100B1
:1006B0008033A9F58FEFE81AF80A0E94CB00670192
:1006C000CC0CDD1C80914E0390914F038C159D0541
:1006D0007CF180E80E94BB0090E080E00E9459001D
:1006E000F70193E0EE0FFF1F9A95E1F7E254FE4FFA
:1006F000808191810E94650080EC0E94BB0090E0A7
:1007000080E00E945900F601EE0FFF1FEE0FFF1F61
:10071000EE53FE4F808191810E946500C7CF8833E0
:1007200021F491E0E91AF108C8CF8F3631F67DCF78
:1007300080FFBCCF80E80E94BB0090E080E00E9478
:100740005900E0914E03F0914F03EE0FFF1FEE0FA3
:10075000FF1FE654FE4FDECF82E791E00E94EB03DD
:1007600064CF8CE891E0FACF88EA91E0F7CFAA1B3A
:10077000BB1B51E107C0AA1FBB1FA617B70710F08C
:10078000A61BB70B881F991F5A95A9F780959095BE
:10079000BC01CD010895EE0FFF1F0590F491E02DEF
:1007A00009940E94DC03A59F900DB49F900DA49F17
:1007B000800D911D11240895A29FB001B39FC00127
:1007C000A39F700D811D1124911DB29F700D811D7D
:1007D0001124911D08950F931F93CF93DF93E09100
:1007E0005803F09159032381EC0110E000E021FD52
:1007F00008C00FEF1FEF14C00995892B11F00FEF00
:100800001FEF89916091580370915903DB0118968D
:10081000ED91FC918111F0CF8AE00995892B49F780
:10082000C801DF91CF911F910F910895F894FFCFE8
:1008300002003738393435363132336F303D312E9E
:10084000417474656E6420696E697400322E73742D
:100850007564656E74206D676D6E7400332E566915
:1008600065772050726573656E747300342E54651D
:100870006D706572617475726500352E7374756480
:10088000656E74206461746100362E54726166690D
:1008900063206D6F6E69746F720053747564656E5A
:1008A00074204E756D6265723A004E6F742041631C
:1008B0006365707465642100436F64652041636300
:1008C00065707465642100417474656E64616E6363
:1008D0006520526561647900312E7375626D6974AB
:1008E0002020322E6578697400456E74657220533D
:1008F000747564656E7420436F64653A0053747553
:1009000064656E74204E756D6265723A2000537492
:100910007564656E7420466F756E6421005374753E
:1009200064656E74204E6F7420466F756E6421008E
:1009300050726573656E742053747564656E74735C
:100940003A004D6F6E69746F72696E672054656D01
:1009500070657261747572652E2E2E005265747208
:10096000696576696E6E672053747564656E742070
:10097000446174612E2E2E004D6F6E69746F726922
:0E0980006E6720547261666669632E2E2E002B
:00000001FF
