:1000000030C000004AC0000048C0000046C00000E8
:1000100044C0000042C0000040C000003EC00000DC
:100020003CC000003AC0000038C0000036C00000EC
:1000300034C0000032C0000030C000002EC00000FC
:100040002CC000002AC0000028C0000026C000000C
:1000500024C000002F0688069A069D06A306A9065E
:10006000AF0611241FBECFE5D8E0DEBFCDBF11E043
:10007000A0E6B0E0E8E0F7E102C005900D92AA3FEB
:10008000B107D9F723E0AAEFB1E001C01D92AE3865
:10009000B207E1F7B4D50C94820BB2CFD19A089590
:1000A000D99A0895D9980895CF93DF93EC01F8DF9A
:1000B000209761F080E090E0EFE3FCE93197F1F701
:1000C00000C000000A968C179D07B0F3EBDFDF91AC
:1000D000CF910895E199FECF9FBB8EBB6DBBE29A95
:1000E000E19A0895E199FECF9FBB8EBBE09A8DB354
:1000F00008950F931F93CF93DF93FB0160816623D5
:10010000A1F0811524E0920780F48F010F5F1F4F4B
:10011000EC01CE01DFDFF80161918F01662329F048
:100120002196C115F4E0DF07A1F7DF91CF911F9170
:100130000F910895AF92BF92CF92DF92EF92FF920C
:100140000F931F93CF93DF936B017A0141155105F4
:10015000B1F0811524E0920790F45B018B01040F4C
:10016000151FEC01CE01BEDFF50181935F01E017A1
:10017000F10729F02196C115F4E0DF0799F7F601A0
:10018000EE0DFF1D1082DF91CF911F910F91FF9017
:10019000EF90DF90CF90BF90AF90089580EF87BB36
:1001A0008FEF88BB089588B38F7088BB86B38F703C
:1001B0008F30C9F78AE08A95F1F700C086B38F7057
:1001C0008F30C1F78AE08A95F1F700C086B38F704F
:1001D0008F3081F79FEE2FED3FEB4FE798BB86B353
:1001E0008F708F3089F428BB86B38F708F3071F495
:1001F00038BB86B38F708F3059F448BB86B38F708D
:100200008F3061F393E005C090E003C091E001C03E
:1002100092E08E3061F4892F90E0FC01EE0FFF1F19
:100220008E0F9F1FFC01E05AFF4F808108958D3093
:1002300061F4892F90E0FC01EE0FFF1F8E0F9F1FCE
:10024000FC01E05AFF4F818108958B3061F4892FC2
:1002500090E0FC01EE0FFF1F8E0F9F1FFC01E05A84
:10026000FF4F82810895892F90E00196FC01EE0FE7
:10027000FF1F8E0F9F1FFC01E05AFF4F80810895E2
:1002800085BB95989698979A82E08A95F1F700C079
:1002900097988FE697E10197F1F700C00000089565
:1002A00085BB959A9698979A82E08A95F1F700C057
:1002B00097988FEC97E00197F1F700C00000089540
:1002C0008FEF81BB84BB8FE39CE90197F1F700C0FE
:1002D000000088E3D5DF8CE0D3DF86E0D1DF81E06A
:1002E000CFDF80E8CDCF0895CF93DF93EC018881F5
:1002F000882329F02196D4DF89918111FCCFDF91E9
:10030000CF910895CF93DF93EA01811107C0603147
:100310006CF4862F8F708068B3DF08C0813031F4B1
:10032000603124F4862F8F70806CAADFCE01DCDF71
:10033000DF91CF91089581E0A3DF80E8A1CF0895F8
:100340001ABA87E886B980E487B90895877080640F
:1003500087B9369A349BFECF349A89EF90E00197A3
:10036000F1F700C0000084B195B10895D69A0895C0
:10037000DE9A85E08A95F1F7DE980895CF9918C046
:1003800081E090E0A0E0B0E0CF990DC00196A11D02
:10039000B11D803C27E2920729E0A207B105A1F731
:1003A0008FEF9FEF0895803C9742A940B105C9F1B6
:1003B0001FBC82E08EBD1DBC1CBCCF9B22C08CB577
:1003C0009DB581369A4EE8F481E090E0A0E0B0E07F
:1003D000CF9B12C02CB53DB521363A4E68F401963C
:1003E000A11DB11D803C27E2920729E0A207B105BB
:1003F00079F78EEF9FEF0895803C9742A940B105B1
:1004000099F08CB59DB5A0E0B0E01EBC81362AEE17
:100410009207A105B10558F4B695A79597958795CC
:1004200008958FEF9FEF08958EEF9FEF08958EEF61
:100430009FEF089589B990BD88E18AB986E080BDB3
:1004400008955D9BFECF8CB908950F931F93CF93B2
:10045000FC018081882351F08F01C0E0F2DFCF5F83
:10046000F801EC0FF11D80818111F8CFCF911F9120
:100470000F91089560DF4EE650E060E080E042DFDB
:100480004FE750E060E081E03DCF089554DF40E960
:1004900050E060E080E036DF4EE950E060E081E06F
:1004A00031CF089548DF4EEA50E060E080E02ADF77
:1004B0004EEB50E060E081E025CF08953CDF4CEC4E
:1004C00050E060E080E01EDF4BED50E060E081E056
:1004D00019CF089530DF4CEE50E060E080E012DF8D
:1004E0004DEF50E060E081E00DCF089524DF4EE055
:1004F00051E060E080E006CF0895EF92FF920F9305
:100500001F93CF93DF93CDB7DEB7A0970FB6F894C4
:10051000DEBF0FBECDBF0FDF8091FD018F938091B5
:10052000FC018F938EE191E09F938F938E010F5F7B
:100530001F4F1F930F930ED6A80160E080E0E2DE0C
:100540002FEF81EE94E0215080409040E1F700C011
:1005500000000F900F900F900F900F900F908091D0
:10056000FC019091FD01892B31F44BE251E060E0F8
:1005700081E0C8DE3FC048E050E0BE016F5E7F4FC3
:1005800080E090E0D7DDAE014F5E5F4F60E081E03C
:10059000B9DE00E010E0E12CF12C05DE893351F4E6
:1005A000C80101962091FC013091FD01821793074B
:1005B00064F00CC0873331F4015011093AF40E2D68
:1005C0001F2D04C08F3611F415C08C0148E050E097
:1005D000BE01675E7F4FC801880F991F880F991F62
:1005E000880F991FA7DDAE01475E5F4F60E081E095
:1005F00089DED3CFA0960FB6F894DEBF0FBECDBF75
:10060000DF91CF911F910F91FF90EF900895CF93BD
:10061000DF93CDB7DEB72A970FB6F894DEBF0FBED3
:10062000CDBF2FEF81EE94E0215080409040E1F764
:1006300000C0000045DEEFEFF1EE24E0E150F040B5
:100640002040E1F700C000007BDE8FEF91EEE4E098
:1006500081509040E040E1F700C000000F2EFFED18
:10066000CF2EF02D0F2EF8E3EF2EF1E0FF2EF02D20
:100670008E010F5F1F4F0F2EFAE0DF2EF02D40ECA2
:1006800050E060E080E03EDE80E060DEBC01990F7B
:10069000880B990B6AD426EF38E24CE950E4F1D488
:1006A0001F92CF9220E030E040E251E4C3D32AD43D
:1006B0007F936F93FF92EF921F930F934BD5A801F7
:1006C00060E081E01FDEFFEF23ED80E3F15020408A
:1006D0008040E1F700C00000F8012D2D11922A950D
:1006E000E9F70FB6F894DEBF0FBECDBFC8CF1F939A
:1006F000CF93DF93CDB7DEB728970FB6F894DEBF60
:100700000FBECDBF8091FC019091FD01009711F0CB
:100710006CF431C010DE40E451E060E080E0F2DDD6
:100720004CE451E060E081E0EDDD2BC080E090E042
:1007300010E048E050E0BE016F5F7F4F880F991FC7
:10074000880F991F880F991FF5DCCE0101967DDE79
:100750002FEF89E698E1215080409040E1F700C0FA
:1007600000001F5F812F90E02091FC013091FD017E
:1007700082179307F4F2DFDD49E551E060E080E0A5
:10078000C1DD28960FB6F894DEBF0FBECDBFDF9156
:10079000CF911F910895CF93DF93CDB7DEB76097C8
:1007A0000FB6F894DEBF0FBECDBF4FE551E060E05D
:1007B00080E0A8DDCC24CA94DD24DA940F2EF1E980
:1007C000EF2EF1E0FF2EF02D8E010F5F1F4F01C0C5
:1007D000CD2C2FEF81EE94E0215080409040E1F746
:1007E00000C00000C5DDCADD8F3F2FEF920771F416
:1007F000A2DD88E691E078DD8FEF95EA2EE081506A
:1008000090402040E1F700C00000E3CF8E3F2FEF83
:10081000920771F490DD8CE791E066DD8FEF95EA49
:100820002EE0815090402040E1F700C00000D1CF81
:10083000BC0180E090E097D326E933E44BE05DE330
:1008400020D420E030E040E05FE31BD420E030E043
:1008500040E05FE38BD256D3663071050CF4D3943D
:10086000DC1409F4B5CF1F92DF92FF92EF921F9331
:100870000F9370D460DDA80160E080E043DD0F904D
:100880000F900F900F900F900F90CD2CA2CF44237C
:10089000D1F0FC013081FB012081321316C0FC0134
:1008A0003196DB011196415050E04F5F5F4F480F8A
:1008B000591F04C021919D91291309C0E417F50720
:1008C000C9F781E0089581E0089580E0089580E00F
:1008D00008954F925F926F927F92BF92CF92DF9274
:1008E000EF92FF920F931F93CF93DF93CDB7DEB7B5
:1008F00062970FB6F894DEBF0FBECDBF1CDD40E09F
:1009000050E060E080E0FEDC8BE991E0EDDC40E06F
:1009100050E060E081E0F6DC8E010F5F1F4FB12CEC
:10092000C12CD12C76013FDC8F3649F1CC0CDD1C7B
:10093000EE1CFF1C26013701440C551C661C771C5D
:10094000440C551C661C771CC40CD51CE61CF71CFB
:10095000282F082E000C330BA90140535109052EF6
:10096000000C660B770BC40ED51EE61EF71EB39463
:10097000F80181938F0194DCF9E0BF12D4CFFE011E
:10098000EB0DF11D11822FEF83EC99E02150804097
:100990009040E1F700C00000D701C601815A904E97
:1009A000A346B2408F399648A140B10508F078C0FF
:1009B0001A8A2091FC013091FD01121613060CF0E9
:1009C00040C080E090E010E048E050E0BE01665F8B
:1009D0007F4F880F991F880F991F880F991FAADBD7
:1009E00048E0BE01665F7F4FCE01019650DF88234D
:1009F000E9F0A1DC53DBFFEF23ED80E3F150204071
:100A00008040E1F700C0000084E690E04DDB4BEA57
:100A100051E060E080E076DC9FEFE9E6F8E191509C
:100A2000E040F040E1F700C000004EC01F5F812FA2
:100A300090E02091FC013091FD01821793070CF4A6
:100A4000C3CFBE016F5F7F4FC901880F991F880F09
:100A5000991F880F991F4DDB8091FC019091FD013A
:100A6000FC01EE0FFF1FEE0FFF1FE250FE4FC08292
:100A7000D182E282F38201969093FD018093FC0182
:100A80005ADC4AEB51E060E080E03CDC2FEF83ED84
:100A900090E3215080409040E1F700C0000014C076
:100AA0004ADC49EC51E060E080E02CDCF7DAEFEF63
:100AB000F1EE24E0E150F0402040E1F700C00000FA
:100AC00084E690E0F1DAEEDA62960FB6F894DEBFD3
:100AD0000FBECDBFDF91CF911F910F91FF90EF908F
:100AE000DF90CF90BF907F906F905F904F90089570
:100AF0000F931F93CF93DF93CDB7DEB762970FB6F7
:100B0000F894DEBF0FBECDBF40E050E060E081E072
:100B1000F9DB10E00BC001E0010FE1E0F0E0EC0FC9
:100B2000FD1FE10FF11D8083BBDB102F3CDB8F36F7
:100B300091F7FE01E10FF11D11822FEF83EC99E097
:100B4000215080409040E1F700C000001A8A809157
:100B5000FC019091FD011816190694F580E090E0D3
:100B600010E048E050E0BE01665F7F4F880F991F9C
:100B7000880F991F880F991FDDDA48E0BE01665F74
:100B80007F4FCE01019683DE882381F0D4DB47EDD1
:100B900051E060E080E0B6DB2FEF89E698E121507C
:100BA00080409040E1F700C000001EC01F5F812F11
:100BB00090E02091FC013091FD01821793078CF2A7
:100BC000BADB46EE51E060E080E09CDB4EEE51E0A7
:100BD00060E081E097DB2FEF83ED90E321508040D0
:100BE0009040E1F700C0000062960FB6F894DEBFB7
:100BF0000FBECDBFDF91CF911F910F91089587E672
:100C000090E018DCB3DB5CDBC9DA34DCCCDA3EDC48
:100C1000C1E0D2E003E015E0C6DA282F082E000C70
:100C2000330B2053310930936D0020936C008D33CA
:100C300059F420DC2FEF83EC99E021508040904064
:100C4000E1F700C00000E8CFE091FB018E2F90E0BB
:100C50008730910508F7FC01E65DFF4F75C2809172
:100C6000FA01813001F120F0823009F43BC0D4CF89
:100C70002230310551F02930310589F0213031051C
:100C800059F6C093FB0126DCC7CFD093FB012EDCC5
:100C90002FDF1092FB011092FA01F8DBBDCFC09359
:100CA000FA0100DCB9CF2430310581F024F423307F
:100CB000310541F0B1CF2730310561F029303105E0
:100CC00069F0AACF0093FB0118DCA6CF84E08093E3
:100CD000FB019DDC1092FA01D9DB9ECFD093FA0183
:100CE000EDDB9ACF2630310559F02730310561F020
:100CF0002530310509F090CF1093FB01F8DC8CCF43
:100D000086E08093FB0147DDC093FA01CBDB84CF03
:100D10002130310521F02230310531F07DCFD9DD90
:100D2000C093FB01D7DB78CF1092FB011092FA0140
:100D3000ADDB72CF1092FB016FCF1092FB011092CE
:100D4000FA01A4DB69CF1092FB011092FA019EDB3D
:100D500063CF1092FB011092FA0198DB5DCF1092E5
:100D6000FB011092FA0192DB57CF5058BB27AA27FC
:100D70000ED04DC13ED130F043D120F031F49F3F31
:100D800011F41EF433C10EF4E095E7FB29C1E92FFD
:100D90004FD180F3BA17620773078407950718F0DD
:100DA00071F49EF567C10EF4E0950B2EBA2FA02DBD
:100DB0000B01B90190010C01CA01A0011124FF2708
:100DC000591B99F0593F50F4503E68F11A16F04003
:100DD000A22F232F342F4427585FF3CF4695379502
:100DE0002795A795F0405395C9F77EF41F16BA0BC7
:100DF000620B730B840BBAF09150A1F0FF0FBB1F75
:100E0000661F771F881FC2F70EC0BA0F621F731FBD
:100E1000841F48F4879577956795B795F7959E3F1A
:100E200008F0B3CF9395880F08F09927EE0F9795A8
:100E3000879508950CD0EBC0E3D040F0DAD030F0C5
:100E400021F45F3F19F0CCC0511115C1CFC0F0D0D3
:100E500098F39923C9F35523B1F3951B550BBB2781
:100E6000AA2762177307840738F09F5F5F4F220F2E
:100E7000331F441FAA1FA9F333D00E2E3AF0E0E827
:100E800030D091505040E695001CCAF729D0FE2F73
:100E900027D0660F771F881FBB1F26173707480705
:100EA000AB07B0E809F0BB0B802DBF01FF279358BB
:100EB0005F4F2AF09E3F510568F092C0DCC05F3F53
:100EC000ECF3983EDCF3869577956795B795F795A3
:100ED0009F5FC9F7880F911D9695879597F908959B
:100EE000E1E0660F771F881FBB1F62177307840737
:100EF000BA0720F0621B730B840BBA0BEE1F88F746
:100F0000E095089504D06894B111B5C0089598D0C3
:100F100088F09F5790F0B92F9927B751A0F0D1F0E2
:100F2000660F771F881F991F1AF0BA95C9F712C06C
:100F3000B13081F09FD0B1E008959CC0672F782F29
:100F40008827B85F39F0B93FCCF3869577956795D8
:100F5000B395D9F73EF490958095709561957F4F44
:100F60008F4F9F4F0895E89409C097FB3EF49095EA
:100F70008095709561957F4F8F4F9F4F9923A9F072
:100F8000F92F96E9BB279395F69587957795679501
:100F9000B795F111F8CFFAF4BB0F11F460FF1BC045
:100FA0006F5F7F4F8F4F9F4F16C0882311F096E9D8
:100FB00011C0772321F09EE8872F762F05C0662386
:100FC00071F096E8862F70E060E02AF09A95660F3F
:100FD000771F881FDAF7880F9695879597F90895F8
:100FE00097F99F6780E870E060E008959FEF80ECDC
:100FF000089500240A94161617061806090608957F
:1010000000240A9412161306140605060895092EE4
:101010000394000C11F4882352F0BB0F40F4BF2B53
:1010200011F460FF04C06F5F7F4F8F4F9F4F089593
:1010300057FD9058440F551F59F05F3F71F0479589
:10104000880F97FB991F61F09F3F79F0879508956E
:10105000121613061406551FF2CF4695F1DF08C08D
:10106000161617061806991FF1CF869571056105AA
:1010700008940895E894BB2766277727CB0197F952
:1010800008950BD0C4CFB5DF28F0BADF18F0952350
:1010900009F0A6CFABCF1124EECFCADFA0F3959F06
:1010A000D1F3950F50E0551F629FF001729FBB274F
:1010B000F00DB11D639FAA27F00DB11DAA1F649FFB
:1010C0006627B00DA11D661F829F2227B00DA11DAE
:1010D000621F739FB00DA11D621F839FA00D611D34
:1010E000221F749F3327A00D611D231F849F600D55
:1010F000211D822F762F6A2F11249F5750408AF08E
:10110000E1F088234AF0EE0FFF1FBB1F661F771F19
:10111000881F91505040A9F79E3F510570F060CF55
:10112000AACF5F3FECF3983EDCF386957795679501
:10113000B795F795E7959F5FC1F7FE2B880F911D37
:101140009695879597F90895EE0FFF1F0590F491F6
:10115000E02D0994AEE0B0E0EFEAF8E0AAC20D8914
:101160001E8986E08C831A8309838FEF9FE79E8315
:101170008D83AE01475E5F4F6F89788DCE010196FA
:1011800008D0EF81F885E00FF11F10822E96E4E081
:10119000ACC2ABE0B0E0EEECF8E07DC26C017B01EC
:1011A0008A01FC0117821682838181FFBFC1CE01B3
:1011B00001963C01F6019381F70193FD859193FF20
:1011C00081917F01882309F4ADC1853239F493FD03
:1011D000859193FF81917F01853221F4B60190E0E2
:1011E000C0D1E8CF912C212C312CFFE1F315D8F0A0
:1011F0008B3279F038F4803279F08332A1F4232DE8
:1012000020611DC08D3261F0803369F4232D21608F
:1012100016C0832D8260382EE32DE4603E2E2AC056
:10122000F32DF8601DC037FC2DC020ED280F2A30AB
:1012300040F08E32B9F436FC75C1232D2064322E75
:1012400019C036FE06C08AE0989E200D1124922E09
:1012500011C0EAE02E9E200D1124222EF32DF06203
:101260003F2E08C08C3621F4832D8068382E02C0B2
:10127000883641F4F70193FD859193FF81917F01B9
:101280008111B3CF982F9F7D9554933028F40C5F34
:101290001F4F9FE399830DC0833631F0833771F080
:1012A000833509F055C020C0F801808189830E5F25
:1012B0001F4F88248394912C530112C02801F2E01F
:1012C0004F0E511CF801A080B18036FE03C0692D7D
:1012D00070E002C06FEF7FEFC50138D14C01820191
:1012E000F32DFF773F2E15C0280122E0420E511C3E
:1012F000F801A080B18036FE03C0692D70E002C005
:101300006FEF7FEFC50117D14C01F32DF0683F2E31
:10131000820133FC19C0822D90E088169906A0F452
:10132000B60180E290E01DD12A94F5CFF50137FC9B
:10133000859137FE81915F01B60190E012D12110B5
:101340002A9421E0821A91088114910479F7E1C06E
:10135000843611F0893639F5F80137FE07C060810F
:101360007181828193810C5F1F4F08C06081718100
:10137000072E000C880B990B0E5F1F4FF32DFF7685
:101380003F2E97FF09C090958095709561957F4F8E
:101390008F4F9F4FF0683F2E2AE030E0A3011DD110
:1013A000882E861844C0853731F4232D2F7EB22E27
:1013B0002AE030E025C0932D997FB92E8F36C1F0F9
:1013C00018F4883579F0AEC0803719F0883721F0ED
:1013D000A9C0E92FE061BE2EB4FE0DC0FB2DF46064
:1013E000BF2E09C034FE0AC0292F2660B22E06C0C7
:1013F00028E030E005C020E130E002C020E132E02A
:10140000F801B7FE07C060817181828193810C5F12
:101410001F4F06C06081718180E090E00E5F1F4F1A
:10142000A301DBD0882E8618FB2DFF773F2E36FEDA
:101430000DC0232D2E7FA22E891458F434FE0BC02C
:1014400032FC09C0832D8E7EA82E05C0B82CA32C9B
:1014500003C0B82C01C0B92CA4FE0FC0FE01E80DDA
:10146000F11D8081803321F49A2D997EA92E09C027
:10147000A2FE06C0B394B39404C08A2D867809F006
:10148000B394A3FC10C0A0FE06C0B21480F4280CD4
:10149000922C9B180DC0B21458F4B60180E290E073
:1014A00060D0B394F8CFB21418F42B1802C0982C63
:1014B000212CA4FE0FC0B60180E390E052D0A2FE22
:1014C00016C0A1FC03C088E790E002C088E590E068
:1014D000B6010CC08A2D867851F0A1FE02C08BE2C5
:1014E00001C080E2A7FC8DE2B60190E03AD08914F9
:1014F00030F4B60180E390E034D09A94F8CF8A9427
:10150000F301E80DF11D8081B60190E02AD0811031
:10151000F6CF222009F44ECEB60180E290E021D031
:101520002A94F7CFF6018681978102C08FEF9FEF53
:101530002B96E2E1CCC0FC01059061507040011097
:10154000D8F7809590958E0F9F1F0895FC016150EC
:10155000704001900110D8F7809590958E0F9F1FD5
:1015600008950F931F93CF93DF93FB01238121FDF8
:1015700003C08FEF9FEF2CC022FF16C0468157811A
:10158000248135814217530744F4A081B1819D0124
:101590002F5F3F4F318320838C93268137812F5FCC
:1015A0003F4F3783268314C08B01EC01FB0100847D
:1015B000F185E02D0995892BE1F6D80116968D91DC
:1015C0009C911797019617969C938E931697CE0130
:1015D000DF91CF911F910F910895FA01AA2728302A
:1015E00051F1203181F1E8946F936E7F6E5F7F4FF0
:1015F0008F4F9F4FAF4FB1E03ED0B4E03CD0670F6C
:10160000781F891F9A1FA11D680F791F8A1F911DBE
:10161000A11D6A0F711D811D911DA11D20D009F40E
:1016200068943F912AE0269F11243019305D319350
:10163000DEF6CF010895462F4770405D4193B3E039
:101640000FD0C9F7F6CF462F4F70405D4A3318F0E0
:10165000495D31FD4052419302D0A9F7EACFB4E091
:10166000A6959795879577956795BA95C9F7009749
:101670006105710508959B01AC010A2E06945795EA
:10168000479537952795BA95C9F7620F731F841F41
:10169000951FA01D08952F923F924F925F926F92D7
:1016A0007F928F929F92AF92BF92CF92DF92EF92F2
:1016B000FF920F931F93CF93DF93CDB7DEB7CA1B73
:1016C000DB0B0FB6F894DEBF0FBECDBF09942A889E
:1016D000398848885F846E847D848C849B84AA8446
:1016E000B984C884DF80EE80FD800C811B81AA81D3
:1016F000B981CE0FD11D0FB6F894DEBF0FBECDBF9E
:08170000ED010895F894FFCFFC
:101708003738393435363132336F303D3000373A77
:101718003D4241434B2020393A3D4E4558540070D4
:101728007265737320616E79206B65792E2E2E0099
:10173800312E417474656E6420696E697400322EAE
:1017480073747564656E74206D676D6E7400332EE6
:10175800566965772050726573656E747300342E10
:1017680054656D706572617475726500352E737499
:101778007564656E74206461746100362E547261FC
:10178800666963206D6F6E69746F72004174746569
:101798006E64616E636520526561647900312E73F1
:1017A80075626D69742020322E65786974005365FE
:1017B800617263682053747564656E743A00507280
:1017C8006573656E74733A202564004E6F205374F8
:1017D8007564656E74732E002564256343202000AC
:1017E8004E6F2073747564656E747300746F207225
:1017F800657472696576652100446F6E65210043E2
:101808006F756E743A2030004572726F723A2045D7
:1018180063686F2074696D656F7574004E6F204F33
:1018280062737461636C6520446574656374656490
:1018380000436F756E743A202564005374756465AF
:101848006E74204E756D6265723A00616C726561E6
:1018580064792074616B656E2100436F6465204173
:101868006363657074656421004E6F74204163631F
:101878006570746564210053747564656E742046E0
:101888006F756E64210053747564656E74004E6FD5
:0A1898007420466F756E6421000095
:00000001FF
