:10000000A6C00000BFC00000BDC00000BBC0000013
:10001000B9C00000B7C00000B5C00000B3C0000008
:10002000B1C000000BC10000ADC00000ABC00000BB
:10003000A9C00000A7C00000A5C00000A3C0000028
:10004000A1C000009FC000009DC000009BC0000038
:1000500099C0000000407A10F35A00A0724E1809AF
:100060000010A5D4E80000E87648170000E40B541F
:10007000020000CA9A3B000000E1F50500008096EE
:100080009800000040420F000000A0860100000020
:10009000102700000000E8030000000064000000DA
:1000A00000000A00000000000100000000002C76A3
:1000B000D888DC674F0823DFC1DFAE59E1B1B796BE
:1000C000E5E3E453C63AE651997696E8E6C284261B
:1000D000EB898C9B62ED407C6FFCEFBC9C9F40F2F7
:1000E000BAA56FA5F490055A2AF75C936B6CF96773
:1000F0006DC11BFCE0E40D47FEF520E6B500D0ED38
:10010000902E0300943577050080841E080000209F
:100110004E0A000000C80C333333330F986E12833D
:100120001141EF8D2114893BE65516CFFEE6DB1811
:10013000D1844B381BF77C1D901DA4BBE4242032D6
:1001400084725E228100C9F124ECA1E53D271124CF
:100150001FBECFE5D8E0DEBFCDBF11E0A0E6B0E026
:10016000E8E5FAE002C005900D92A63BB107D9F789
:1001700021E0A6EBB1E001C01D92A83BB207E1F778
:1001800074D068C43DCF85BB90989198929A82E0D4
:100190008A95F1F700C092988FE697E10197F1F701
:1001A00000C00000089585BB909A9198929A82E0D1
:1001B0008A95F1F700C092988FEC97E00197F1F7DC
:1001C00000C0000008958FEF81BB84BB8FE39CE9E2
:1001D0000197F1F700C0000088E3D5DF8CE0D3DFA2
:1001E00086E0D1DF81E0CFDF80E8CDCF0895CF93E7
:1001F000DF93EC018881882329F02196D4DF89914F
:100200008111FCCFDF91CF910895CF93DF93EA0165
:10021000811107C060316CF4862F8F708068B3DF66
:1002200008C0813031F4603124F4862F8F70806CE7
:10023000AADFCE01DCDFDF91CF9108951F920F92EC
:100240000FB60F9211248F939F938091B6019091D6
:10025000B70101969093B7018093B6019F918F915A
:100260000F900FBE0F901F901895CF93DF93CDB7CF
:10027000DEB72A970FB6F894DEBF0FBECDBF81E080
:100280008ABB8FEF82BB9FDF40E650E060E081E0F9
:10029000BCDF8BE690E0ABDF2FEF83ED90E32150E6
:1002A00080409040E1F700C00000789484E089BF6E
:1002B0001FBC0F2EF1E4AF2EF02D6894CC24C5F8AE
:1002C0006894DD24D2F8BB24B394CE0101967C015E
:1002D000DA9A95E39A95F1F70000DA981DBC1CBCF8
:1002E000AEBCC8BED8BE08B605FEFDCF1DBC1CBC4A
:1002F000BEBCC8BED8BE1092B7011092B60108B6F7
:1003000005FEFDCF66B577B580E090E092D029E29A
:100310003CE349EE53E423D0870122E042E015D1CB
:10032000D7010D900020E9F7119787E0E1E7F0E0B1
:1003300001900D928A95E1F748E750E060E082E095
:1003400064DFA70167E082E060DF2FEF83EC99E0D4
:10035000215080409040E1F700C00000B9CF0CD0A0
:10036000BAC0B2D040F0A9D030F021F45F3F19F00C
:100370009BC05111E4C09EC0BFD098F39923C9F32C
:100380005523B1F3951B550BBB27AA27621773079B
:10039000840738F09F5F5F4F220F331F441FAA1F4F
:1003A000A9F333D00E2E3AF0E0E830D0915050400F
:1003B000E695001CCAF729D0FE2F27D0660F771FBD
:1003C000881FBB1F261737074807AB07B0E809F09F
:1003D000BB0B802DBF01FF2793585F4F2AF09E3F34
:1003E000510568F061C0ABC05F3FECF3983EDCF3B1
:1003F000869577956795B795F7959F5FC9F7880FAD
:10040000911D9695879597F90895E1E0660F771FFE
:10041000881FBB1F621773078407BA0720F0621B8F
:10042000730B840BBA0BEE1F88F7E0950895E894E0
:1004300009C097FB3EF490958095709561957F4F2C
:100440008F4F9F4F9923A9F0F92F96E9BB279395DA
:10045000F695879577956795B795F111F8CFFAF4EA
:10046000BB0F11F460FF1BC06F5F7F4F8F4F9F4F1B
:1004700016C0882311F096E911C0772321F09EE879
:10048000872F762F05C0662371F096E8862F70E0DF
:1004900060E02AF09A95660F771F881FDAF7880FB9
:1004A0009695879597F9089597F99F6780E870E08A
:1004B00060E008959FEF80EC089500240A941616DA
:1004C000170618060906089500240A941216130642
:1004D000140605060895092E0394000C11F48823D0
:1004E00052F0BB0F40F4BF2B11F460FF04C06F5FEC
:1004F0007F4F8F4F9F4F089557FD9058440F551FC2
:1005000059F05F3F71F04795880F97FB991F61F095
:100510009F3F79F087950895121613061406551F0C
:10052000F2CF4695F1DF08C0161617061806991F78
:10053000F1CF86957105610508940895E894BB276D
:1005400066277727CB0197F90895EF920F931F93B2
:10055000CF93DF93E80147FD02C034E001C034E1EE
:10056000042E000C550B57FF03C0519541955109BE
:10057000E32E022F242FAE0107D0CE01DF91CF91C1
:100580001F910F91EF900895A9E0B0E0E9ECF2E03F
:1005900030C26A01122FB02E2BE3201720F0FF2467
:1005A000F394F00E02C02CE3F22E0F2D27E0AE01E3
:1005B0004F5F5F4F40D1BC014981842F89708130EA
:1005C00031F0E1FC06C0E0FE06C090E205C09DE20D
:1005D00003C09BE201C090E05E2D507143FF3CC020
:1005E000911102C083E001C084E0811718F4212F2B
:1005F000281B01C020E051110BC0F601822F30E210
:10060000882319F031938150FBCFC20ED11C20E01A
:10061000992329F0D6019C93F60131966F01C6010A
:100620000396E2FE0AC03EE4D6013C9341E41196F3
:100630004C93119712963C9306C03EE6F601308328
:1006400041E641833283FC01322F40E2332309F437
:1006500042C041933150FACF42FF44C0911102C0D1
:1006600083E001C084E0811718F4212F281B01C00A
:1006700020E051110BC0F601822F30E2882319F0DF
:1006800031938150FBCFC20ED11C20E0992329F079
:10069000D6019C93F60131966F01C6010396E2FEE6
:1006A0000BC039E4D6013C933EE411963C9311977C
:1006B00036E412963C9307C039E6F60130833EE6F5
:1006C000318336E63283FC01322F40E2332319F0C6
:1006D00041933150FBCFFC01E20FF11D10828EEFF0
:1006E0009FEFA6C021E030E0911102C020E030E091
:1006F000161617061CF4FB01319602C0E1E0F0E08B
:100700002E0F3F1FBB2021F0EB2DF0E0319602C0F1
:10071000E0E0F0E02E0F3F1FE12FF0E02E173F0743
:100720001CF4121B212F01C020E08E2D887159F47A
:10073000F601822F30E2882319F031938150FBCFEC
:10074000C20ED11C20E0992329F0D6019C93F6011A
:1007500031966F0151110BC0F601822F90E388236F
:1007600019F091938150FBCFC20ED11C20E00F2DC8
:10077000060F9A81342F307144FF03C0913309F47E
:100780000150101624F4093018F008E001C001E00F
:10079000AB0177FF02C040E050E0FB01E41BF50B2A
:1007A000A1E0B0E0AC0FBD1FEA0FFB1F8EE2A82E48
:1007B0004B01801A91080B2D10E01195019511093C
:1007C0004F3FBFEF5B0721F4D601AC9211966D014C
:1007D000641775072CF08416950614F4818101C006
:1007E00080E3415051093196D60111967D014017A1
:1007F000510724F0D6018C936701E2CF6417750787
:1008000039F4963320F4953319F4311101C081E3A2
:10081000F6018083F701822F90E2882319F09193EB
:100820008150FBCFF701E20FF11D108280E090E0D4
:100830002996ECE0FAC0283008F027E03327DA01E7
:10084000990F311D87FD916000966105710539F49E
:1008500032602E5F3D9330E32A95E1F708959F3F84
:1008600030F080387105610509F03C5F3C5F3D93D5
:10087000913008F08068911DDF93CF931F930F9301
:10088000FF92EF92192F987F9695E92F969596955E
:10089000E90FFF27E255FF4F99273327EE24FF2466
:1008A000A701E70105900894079428F4360FE71E86
:1008B000F81E491F511D660F771F881F991F069448
:1008C000A1F70590079428F4E70EF81E491F561F5C
:1008D000C11D770F881F991F661F0694A1F7059009
:1008E000079428F4F80E491F561FC71FD11D880F03
:1008F000991F661F771F0694A1F70590079420F4AF
:10090000490F561FC71FD81F990F661F771F881FD3
:100910000694A9F784911095177041F0D695C79564
:1009200057954795F794E7941A95C1F7E4E5F0E0F9
:1009300068941590159135916591959105907FE298
:100940007395E118F10A430B560BC90BD009C0F798
:10095000E10CF11E431F561FC91FD01D7EF47033DA
:1009600011F48A95E6CFE894015030F0080F0AF4AC
:100970000027021708F4202F2395022F7A3328F03E
:1009800079E37D932A95E9F710C07D932A9589F63E
:10099000069497956795379517951794E118F10A7E
:1009A000430B560BC90BD00998F023957E91739594
:1009B0007A3308F070E37C932013B8F77E9170616E
:1009C0007D9330F0839571E37D9370E32A95E1F791
:1009D0001124EF90FF900F911F91CF91DF919927F4
:1009E00087FD909508952F923F924F925F926F925C
:1009F0007F928F929F92AF92BF92CF92DF92EF92AF
:100A0000FF920F931F93CF93DF93CDB7DEB7CA1B2F
:100A1000DB0B0FB6F894DEBF0FBECDBF09942A885A
:100A2000398848885F846E847D848C849B84AA8402
:100A3000B984C884DF80EE80FD800C811B81AA818F
:100A4000B981CE0FD11D0FB6F894DEBF0FBECDBF5A
:080A5000ED010895F894FFCFB9
:100A5800556C747261736F6E69630048656C6C6F76
:100A68000020636D2020200044697374203D20001D
:100A7800312E20537461727420417474656E646100
:100A88006E636500322E204D616E61676520537478
:100A98007564656E747300332E204D6F6E69746FC4
:100AA800722054656D706572617475726500342EBC
:100AB8002054726166666963204D6F6E69746F7247
:100AC800696E6700456E74657220796F7572206370
:100AD800686F6963653A2000417474656E64616E7D
:100AE800636520496E697469616C697A65642E2052
:100AF80057616974696E6720666F722073747564D4
:100B0800656E7420636F6465732E2E2E00537562B4
:100B18006D697474696E672053747564656E7420AA
:100B2800436F64652E2E2E004D616E6167696E6796
:100B38002053747564656E74732E2E2E0056696585
:100B480077696E672050726573656E74205374758B
:100B580064656E74732E2E2E004D6F6E69746F72FD
:100B6800696E672054656D70657261747572652E63
:100B78002E2E0052657472696576696E6E67205311
:100B8800747564656E7420446174612E2E2E004D58
:100B98006F6E69746F72696E6720547261666669F8
:060BA800632E2E2E00005A
:00000001FF
