S00A000066772E737265633D
S113000029C0000042C0000040C000003EC0000003
S11300103CC000003AC0000038C0000036C00000F8
S113002034C0000032C0000030C000002EC0000008
S11300302CC000002AC0000028C0000026C0000018
S113004024C0000022C0000020C000001EC0000028
S11300501CC0000011241FBECFE5D8E0DEBFCDBF19
S113006011E0A0E6B0E0E4EAF5E002C005900D92EC
S1130070AC3BB107D9F721E0ACEBB1E001C01D9274
S1130080A03CB207E1F7C6D08BC2BACF85BB90982B
S11300909198929A82E08A95F1F700C092988FE63F
S11300A097E10197F1F700C00000089585BB909A8D
S11300B09198929A82E08A95F1F700C092988FEC19
S11300C097E00197F1F700C0000008958FEF81BB1E
S11300D084BB8FE39CE90197F1F700C0000088E33B
S11300E0D5DF8CE0D3DF86E0D1DF81E0CFDF80E8AD
S11300F0CDCF0895CF93DF93EC018881882329F035
S11301002196D4DF89918111FCCFDF91CF9108959D
S1130110CF93DF93EA01811107C060316CF4862F1D
S11301208F708068B3DF08C0813031F4603124F40B
S1130130862F8F70806CAADFCE01DCDFDF91CF9138
S1130140089581E0A3DF80E8A1CF0895D69A0895A9
S1130150DE9A85E08A95F1F7DE980895CF9918C064
S113016081E090E0A0E0B0E0CF990DC00196A11D20
S1130170B11D803C27E2920729E0A207B105A1F74F
S11301808FEF9FEF0895803C9742A940B105C9F1D4
S11301901FBC82E08EBD1DBC1CBCCF9B22C08CB595
S11301A09DB581369A4EE8F481E090E0A0E0B0E09D
S11301B0CF9B12C02CB53DB521363A4E68F401965A
S11301C0A11DB11D803C27E2920729E0A207B105D9
S11301D079F78EEF9FEF0895803C9742A940B105CF
S11301E099F08CB59DB5A0E0B0E01EBC81362AEE36
S11301F09207A105B10558F4B695A79597958795EB
S113020008958FEF9FEF08958EEF9FEF08958EEF7F
S11302109FEF0895CF93DF9300D000D0CDB7DEB722
S113022055DF94DF8EDF80E690E064DF2FEF81EE10
S113023094E0215080409040E1F700C0000081DF4D
S113024087DF8CDF8F3F2FEF920731F440E750E0D8
S113025061E081E05DDF45C0BC0180E090E07CD0DE
S113026026E933E44BE05DE305D120E030E040E0F3
S11302705FE300D140D07093BF016093BE01209131
S1130280BC013091BD012617370709F05ADF47E753
S113029050E061E081E03CDF4AE0BE016F5F7F4FE8
S11302A08091BE019091BF0148D1AE014F5F5F4F75
S11302B061E08CE02DDF43E850E061E08EE028DF70
S11302C08091BE019091BF019093BD018093BC01C8
S11302D08FEF96E721E0815090402040E1F700C085
S11302E000008FEF99E628E1815090402040E1F72B
S11302F000C00000A5CF04D06894B111B5C0089522
S113030098D088F09F5790F0B92F9927B751A0F053
S1130310D1F0660F771F881F991F1AF0BA95C9F795
S113032012C0B13081F09FD0B1E008959CC0672F16
S1130330782F8827B85F39F0B93FCCF38695779545
S11303406795B395D9F73EF490958095709561952E
S11303507F4F8F4F9F4F0895E89409C097FB3EF459
S113036090958095709561957F4F8F4F9F4F9923FE
S1130370A9F0F92F96E9BB279395F695879577957C
S11303806795B795F111F8CFFAF4BB0F11F460FF3C
S11303901BC06F5F7F4F8F4F9F4F16C0882311F094
S11303A096E911C0772321F09EE8872F762F05C0A8
S11303B0662371F096E8862F70E060E02AF09A9543
S11303C0660F771F881FDAF7880F9695879597F938
S11303D0089597F99F6780E870E060E008959FEFC3
S11303E080EC089500240A941616170618060906C8
S11303F0089500240A941216130614060506089597
S1130400092E0394000C11F4882352F0BB0F40F41E
S1130410BF2B11F460FF04C06F5F7F4F8F4F9F4F5E
S1130420089557FD9058440F551F59F05F3F71F0E0
S11304304795880F97FB991F61F09F3F79F0879547
S11304400895121613061406551FF2CF4695F1DFD0
S113045008C0161617061806991FF1CF8695710560
S1130460610508940895E894BB2766277727CB0194
S113047097F908950BD0C4CFB5DF28F0BADF18F090
S1130480952309F0A6CFABCF1124EECFCADFA0F39A
S1130490959FD1F3950F50E0551F629FF001729F15
S11304A0BB27F00DB11D639FAA27F00DB11DAA1F34
S11304B0649F6627B00DA11D661F829F2227B00D81
S11304C0A11D621F739FB00DA11D621F839FA00D0C
S11304D0611D221F749F3327A00D611D231F849F5C
S11304E0600D211D822F762F6A2F11249F575040B3
S11304F08AF0E1F088234AF0EE0FFF1FBB1F661F4E
S1130500771F881F91505040A9F79E3F510570F006
S113051060CFAACF5F3FECF3983EDCF386957795E6
S11305206795B795F795E7959F5FC1F7FE2B880F01
S1130530911D9695879597F90895BB274A3031F414
S1130540992322F4BDE2909581959F4F01C0BB276A
S1130550FB015527AA27880F991FAA1FA41710F07B
S1130560A41B83955051B9F7A05DAA3308F0A95D87
S1130570A193009779F7B111B1931192CB0100C007
S1130580DC01FC01672F71917723E1F7329704C0F6
S11305907C916D9370836291AE17BF07C8F3089581
S10705A0F894FFCFF9
S11305A4556C747261736F6E69632054657374005F
S11305B44572726F7221005761746572206C7620E3
S11305C43D2000636D00312E205374617274204108
S11305D47474656E64616E636500322E204D616EC1
S11305E46167652053747564656E747300332E20DB
S11305F44D6F6E69746F722054656D7065726174A9
S113060475726500342E2054726166666963204DE8
S11306146F6E69746F72696E6700456E74657220DB
S1130624796F75722063686F6963653A2000417459
S113063474656E64616E636520496E697469616C86
S1130644697A65642E2057616974696E6720666FE0
S1130654722073747564656E7420636F6465732E9D
S11306642E2E005375626D697474696E6720537419
S11306747564656E7420436F64652E2E2E004D617F
S11306846E6167696E672053747564656E74732E46
S11306942E2E0056696577696E67205072657365FE
S11306A46E742053747564656E74732E2E2E004D0F
S11306B46F6E69746F72696E672054656D706572CC
S11306C461747572652E2E2E005265747269657696
S11306D4696E6E672053747564656E742044617426
S11306E4612E2E2E004D6F6E69746F72696E6720D1
S10F06F4547261666669632E2E2E0000AD
S9030000FC
