S00A000066772E737265633D
S113000029C000003AC0000038C0000036C000001B
S113001034C0000032C0000030C000002EC0000018
S11300202CC000002AC0000028C0000026C0000028
S113003024C0000022C0000020C000001EC0000038
S11300401CC000001AC0000018C0000016C0000048
S113005014C0000011241FBECFE5D8E0DEBFCDBF21
S113006010E0A0E6B0E0ECE3F1E002C005900D92F0
S1130070AA37B107D9F75DD05FC0C2CF85BBA898B6
S1130080A99A89EF90E00197F1F700C00000A998C0
S113009083EF91E00197F1F700C0000008958FEF1E
S11300A084BB87E893E10197F1F700C0000088E37F
S11300B0E5DF8CE0E3DF81E0E1CF0895FC0190818E
S11300C09923A1F0319695BBA89AA99A89EF90E05B
S11300D00197F1F700C00000A99883EF91E0019720
S11300E0F1F700C0000091919111EDCF089581E0E6
S11300F0C5CF0895CF93DF9300D0CDB7DEB790E896
S1130100998390EC9A83FE01E80FF11D8081860F9C
S1130110B5DF0F900F90DF91CF910895E8DF80E66F
S113012090E0CCDF60E083E0E5DF8EE690E0C6CFD0
S10F01300895B5DFF3DFFECFF894FFCF95
S113013C312E20417474656E64616E636500322ED9
S10D014C2053656E736F7273000098
S9030000FC
